{
	"contracts/PIP_Token/PIP_Token.sol": {
		"PIP_Tokens": {
			"abi": [
				{
					"inputs": [],
					"stateMutability": "nonpayable",
					"type": "constructor"
				},
				{
					"anonymous": false,
					"inputs": [
						{
							"indexed": true,
							"internalType": "address",
							"name": "_owner",
							"type": "address"
						},
						{
							"indexed": true,
							"internalType": "address",
							"name": "_spender",
							"type": "address"
						},
						{
							"indexed": false,
							"internalType": "uint256",
							"name": "_value",
							"type": "uint256"
						}
					],
					"name": "Approval",
					"type": "event"
				},
				{
					"anonymous": false,
					"inputs": [
						{
							"indexed": true,
							"internalType": "address",
							"name": "_from",
							"type": "address"
						},
						{
							"indexed": true,
							"internalType": "address",
							"name": "_to",
							"type": "address"
						},
						{
							"indexed": false,
							"internalType": "uint256",
							"name": "_value",
							"type": "uint256"
						}
					],
					"name": "Transfer",
					"type": "event"
				},
				{
					"inputs": [],
					"name": "_initialSupply",
					"outputs": [
						{
							"internalType": "uint256",
							"name": "",
							"type": "uint256"
						}
					],
					"stateMutability": "view",
					"type": "function"
				},
				{
					"inputs": [
						{
							"internalType": "address",
							"name": "_owner",
							"type": "address"
						},
						{
							"internalType": "address",
							"name": "_spender",
							"type": "address"
						}
					],
					"name": "allowance",
					"outputs": [
						{
							"internalType": "uint256",
							"name": "",
							"type": "uint256"
						}
					],
					"stateMutability": "view",
					"type": "function"
				},
				{
					"inputs": [
						{
							"internalType": "address",
							"name": "_spender",
							"type": "address"
						},
						{
							"internalType": "uint256",
							"name": "_value",
							"type": "uint256"
						}
					],
					"name": "approve",
					"outputs": [
						{
							"internalType": "bool",
							"name": "success",
							"type": "bool"
						}
					],
					"stateMutability": "nonpayable",
					"type": "function"
				},
				{
					"inputs": [
						{
							"internalType": "address",
							"name": "_owner",
							"type": "address"
						}
					],
					"name": "balanceOf",
					"outputs": [
						{
							"internalType": "uint256",
							"name": "",
							"type": "uint256"
						}
					],
					"stateMutability": "view",
					"type": "function"
				},
				{
					"inputs": [],
					"name": "decimals",
					"outputs": [
						{
							"internalType": "uint8",
							"name": "",
							"type": "uint8"
						}
					],
					"stateMutability": "view",
					"type": "function"
				},
				{
					"inputs": [],
					"name": "name",
					"outputs": [
						{
							"internalType": "string",
							"name": "",
							"type": "string"
						}
					],
					"stateMutability": "view",
					"type": "function"
				},
				{
					"inputs": [],
					"name": "symbol",
					"outputs": [
						{
							"internalType": "string",
							"name": "",
							"type": "string"
						}
					],
					"stateMutability": "view",
					"type": "function"
				},
				{
					"inputs": [],
					"name": "totalSupply",
					"outputs": [
						{
							"internalType": "uint256",
							"name": "",
							"type": "uint256"
						}
					],
					"stateMutability": "view",
					"type": "function"
				},
				{
					"inputs": [
						{
							"internalType": "address",
							"name": "_to",
							"type": "address"
						},
						{
							"internalType": "uint256",
							"name": "_value",
							"type": "uint256"
						}
					],
					"name": "transfer",
					"outputs": [
						{
							"internalType": "bool",
							"name": "success",
							"type": "bool"
						}
					],
					"stateMutability": "nonpayable",
					"type": "function"
				},
				{
					"inputs": [
						{
							"internalType": "address",
							"name": "_from",
							"type": "address"
						},
						{
							"internalType": "address",
							"name": "_to",
							"type": "address"
						},
						{
							"internalType": "uint256",
							"name": "_value",
							"type": "uint256"
						}
					],
					"name": "transferFrom",
					"outputs": [
						{
							"internalType": "bool",
							"name": "success",
							"type": "bool"
						}
					],
					"stateMutability": "nonpayable",
					"type": "function"
				}
			],
			"devdoc": {
				"kind": "dev",
				"methods": {},
				"version": 1
			},
			"evm": {
				"assembly": "    /* \"contracts/PIP_Token/PIP_Token.sol\":774:3647  contract PIP_Tokens is IToken {... */\n  mstore(0x40, 0x80)\n    /* \"contracts/PIP_Token/PIP_Token.sol\":1505:1784  constructor() {... */\n  callvalue\n  dup1\n  iszero\n  tag_1\n  jumpi\n  0x00\n  dup1\n  revert\ntag_1:\n  pop\n    /* \"contracts/PIP_Token/PIP_Token.sol\":980:982  18 */\n  0x12\n    /* \"contracts/PIP_Token/PIP_Token.sol\":1079:1096  uint256(decimals) */\n  0xff\n  and\n    /* \"contracts/PIP_Token/PIP_Token.sol\":1073:1075  10 */\n  0x0a\n    /* \"contracts/PIP_Token/PIP_Token.sol\":1073:1096  10 ** uint256(decimals) */\n  tag_4\n  swap2\n  swap1\n  tag_5\n  jump\t// in\ntag_4:\n    /* \"contracts/PIP_Token/PIP_Token.sol\":1062:1069  1000000 */\n  0x0f4240\n    /* \"contracts/PIP_Token/PIP_Token.sol\":1062:1097  1000000 * (10 ** uint256(decimals)) */\n  tag_6\n  swap2\n  swap1\n  tag_7\n  jump\t// in\ntag_6:\n    /* \"contracts/PIP_Token/PIP_Token.sol\":1530:1542  _totalSupply */\n  0x02\n    /* \"contracts/PIP_Token/PIP_Token.sol\":1530:1559  _totalSupply = _initialSupply */\n  dup2\n  swap1\n  sstore\n  pop\n    /* \"contracts/PIP_Token/PIP_Token.sol\":1622:1634  _totalSupply */\n  sload(0x02)\n    /* \"contracts/PIP_Token/PIP_Token.sol\":1598:1607  _balances */\n  0x00\n    /* \"contracts/PIP_Token/PIP_Token.sol\":1598:1619  _balances[msg.sender] */\n  dup1\n    /* \"contracts/PIP_Token/PIP_Token.sol\":1608:1618  msg.sender */\n  caller\n    /* \"contracts/PIP_Token/PIP_Token.sol\":1598:1619  _balances[msg.sender] */\n  0xffffffffffffffffffffffffffffffffffffffff\n  and\n  0xffffffffffffffffffffffffffffffffffffffff\n  and\n  dup2\n  mstore\n  0x20\n  add\n  swap1\n  dup2\n  mstore\n  0x20\n  add\n  0x00\n  keccak256\n    /* \"contracts/PIP_Token/PIP_Token.sol\":1598:1634  _balances[msg.sender] = _totalSupply */\n  dup2\n  swap1\n  sstore\n  pop\n    /* \"contracts/PIP_Token/PIP_Token.sol\":1709:1719  msg.sender */\n  caller\n    /* \"contracts/PIP_Token/PIP_Token.sol\":1688:1734  Transfer(address(0), msg.sender, _totalSupply) */\n  0xffffffffffffffffffffffffffffffffffffffff\n  and\n    /* \"contracts/PIP_Token/PIP_Token.sol\":1705:1706  0 */\n  0x00\n    /* \"contracts/PIP_Token/PIP_Token.sol\":1688:1734  Transfer(address(0), msg.sender, _totalSupply) */\n  0xffffffffffffffffffffffffffffffffffffffff\n  and\n  0xddf252ad1be2c89b69c2b068fc378daa952ba7f163c4a11628f55a4df523b3ef\n    /* \"contracts/PIP_Token/PIP_Token.sol\":1721:1733  _totalSupply */\n  sload(0x02)\n    /* \"contracts/PIP_Token/PIP_Token.sol\":1688:1734  Transfer(address(0), msg.sender, _totalSupply) */\n  mload(0x40)\n  tag_8\n  swap2\n  swap1\n  tag_9\n  jump\t// in\ntag_8:\n  mload(0x40)\n  dup1\n  swap2\n  sub\n  swap1\n  log3\n    /* \"contracts/PIP_Token/PIP_Token.sol\":774:3647  contract PIP_Tokens is IToken {... */\n  jump(tag_10)\n    /* \"#utility.yul\":7:187   */\ntag_11:\n    /* \"#utility.yul\":55:132   */\n  0x4e487b7100000000000000000000000000000000000000000000000000000000\n    /* \"#utility.yul\":52:53   */\n  0x00\n    /* \"#utility.yul\":45:133   */\n  mstore\n    /* \"#utility.yul\":152:156   */\n  0x11\n    /* \"#utility.yul\":149:150   */\n  0x04\n    /* \"#utility.yul\":142:157   */\n  mstore\n    /* \"#utility.yul\":176:180   */\n  0x24\n    /* \"#utility.yul\":173:174   */\n  0x00\n    /* \"#utility.yul\":166:181   */\n  revert\n    /* \"#utility.yul\":193:295   */\ntag_12:\n    /* \"#utility.yul\":235:243   */\n  0x00\n    /* \"#utility.yul\":282:287   */\n  dup2\n    /* \"#utility.yul\":279:280   */\n  0x01\n    /* \"#utility.yul\":275:288   */\n  shr\n    /* \"#utility.yul\":254:288   */\n  swap1\n  pop\n    /* \"#utility.yul\":193:295   */\n  swap2\n  swap1\n  pop\n  jump\t// out\n    /* \"#utility.yul\":301:1149   */\ntag_13:\n    /* \"#utility.yul\":362:367   */\n  0x00\n    /* \"#utility.yul\":369:373   */\n  dup1\n    /* \"#utility.yul\":393:399   */\n  dup3\n    /* \"#utility.yul\":384:399   */\n  swap2\n  pop\n    /* \"#utility.yul\":417:422   */\n  dup4\n    /* \"#utility.yul\":408:422   */\n  swap1\n  pop\n    /* \"#utility.yul\":431:1143   */\ntag_21:\n    /* \"#utility.yul\":452:453   */\n  0x01\n    /* \"#utility.yul\":442:450   */\n  dup6\n    /* \"#utility.yul\":439:454   */\n  gt\n    /* \"#utility.yul\":431:1143   */\n  iszero\n  tag_23\n  jumpi\n    /* \"#utility.yul\":547:551   */\n  dup1\n    /* \"#utility.yul\":542:545   */\n  dup7\n    /* \"#utility.yul\":538:552   */\n  div\n    /* \"#utility.yul\":532:536   */\n  dup2\n    /* \"#utility.yul\":529:553   */\n  gt\n    /* \"#utility.yul\":526:576   */\n  iszero\n  tag_24\n  jumpi\n    /* \"#utility.yul\":556:574   */\n  tag_25\n  tag_11\n  jump\t// in\ntag_25:\n    /* \"#utility.yul\":526:576   */\ntag_24:\n    /* \"#utility.yul\":606:607   */\n  0x01\n    /* \"#utility.yul\":596:604   */\n  dup6\n    /* \"#utility.yul\":592:608   */\n  and\n    /* \"#utility.yul\":589:1040   */\n  iszero\n  tag_26\n  jumpi\n    /* \"#utility.yul\":1021:1025   */\n  dup1\n    /* \"#utility.yul\":1014:1019   */\n  dup3\n    /* \"#utility.yul\":1010:1026   */\n  mul\n    /* \"#utility.yul\":1001:1026   */\n  swap2\n  pop\n    /* \"#utility.yul\":589:1040   */\ntag_26:\n    /* \"#utility.yul\":1071:1075   */\n  dup1\n    /* \"#utility.yul\":1065:1069   */\n  dup2\n    /* \"#utility.yul\":1061:1076   */\n  mul\n    /* \"#utility.yul\":1053:1076   */\n  swap1\n  pop\n    /* \"#utility.yul\":1101:1133   */\n  tag_27\n    /* \"#utility.yul\":1124:1132   */\n  dup6\n    /* \"#utility.yul\":1101:1133   */\n  tag_12\n  jump\t// in\ntag_27:\n    /* \"#utility.yul\":1089:1133   */\n  swap5\n  pop\n    /* \"#utility.yul\":431:1143   */\n  jump(tag_21)\ntag_23:\n    /* \"#utility.yul\":301:1149   */\n  swap5\n  pop\n  swap5\n  swap3\n  pop\n  pop\n  pop\n  jump\t// out\n    /* \"#utility.yul\":1155:2228   */\ntag_14:\n    /* \"#utility.yul\":1209:1214   */\n  0x00\n    /* \"#utility.yul\":1400:1408   */\n  dup3\n    /* \"#utility.yul\":1390:1430   */\n  tag_29\n  jumpi\n    /* \"#utility.yul\":1421:1422   */\n  0x01\n    /* \"#utility.yul\":1412:1422   */\n  swap1\n  pop\n    /* \"#utility.yul\":1423:1428   */\n  jump(tag_28)\n    /* \"#utility.yul\":1390:1430   */\ntag_29:\n    /* \"#utility.yul\":1449:1453   */\n  dup2\n    /* \"#utility.yul\":1439:1475   */\n  tag_30\n  jumpi\n    /* \"#utility.yul\":1466:1467   */\n  0x00\n    /* \"#utility.yul\":1457:1467   */\n  swap1\n  pop\n    /* \"#utility.yul\":1468:1473   */\n  jump(tag_28)\n    /* \"#utility.yul\":1439:1475   */\ntag_30:\n    /* \"#utility.yul\":1535:1539   */\n  dup2\n    /* \"#utility.yul\":1583:1584   */\n  0x01\n    /* \"#utility.yul\":1578:1605   */\n  dup2\n  eq\n  tag_32\n  jumpi\n    /* \"#utility.yul\":1619:1620   */\n  0x02\n    /* \"#utility.yul\":1614:1805   */\n  dup2\n  eq\n  tag_33\n  jumpi\n    /* \"#utility.yul\":1528:1805   */\n  jump(tag_31)\n    /* \"#utility.yul\":1578:1605   */\ntag_32:\n    /* \"#utility.yul\":1596:1597   */\n  0x01\n    /* \"#utility.yul\":1587:1597   */\n  swap2\n  pop\n    /* \"#utility.yul\":1598:1603   */\n  pop\n  jump(tag_28)\n    /* \"#utility.yul\":1614:1805   */\ntag_33:\n    /* \"#utility.yul\":1659:1662   */\n  0xff\n    /* \"#utility.yul\":1649:1657   */\n  dup5\n    /* \"#utility.yul\":1646:1663   */\n  gt\n    /* \"#utility.yul\":1643:1686   */\n  iszero\n  tag_34\n  jumpi\n    /* \"#utility.yul\":1666:1684   */\n  tag_35\n  tag_11\n  jump\t// in\ntag_35:\n    /* \"#utility.yul\":1643:1686   */\ntag_34:\n    /* \"#utility.yul\":1715:1723   */\n  dup4\n    /* \"#utility.yul\":1712:1713   */\n  0x02\n    /* \"#utility.yul\":1708:1724   */\n  exp\n    /* \"#utility.yul\":1699:1724   */\n  swap2\n  pop\n    /* \"#utility.yul\":1750:1753   */\n  dup5\n    /* \"#utility.yul\":1743:1748   */\n  dup3\n    /* \"#utility.yul\":1740:1754   */\n  gt\n    /* \"#utility.yul\":1737:1777   */\n  iszero\n  tag_36\n  jumpi\n    /* \"#utility.yul\":1757:1775   */\n  tag_37\n  tag_11\n  jump\t// in\ntag_37:\n    /* \"#utility.yul\":1737:1777   */\ntag_36:\n    /* \"#utility.yul\":1790:1795   */\n  pop\n  jump(tag_28)\n    /* \"#utility.yul\":1528:1805   */\ntag_31:\n  pop\n    /* \"#utility.yul\":1914:1916   */\n  0x20\n    /* \"#utility.yul\":1904:1912   */\n  dup4\n    /* \"#utility.yul\":1901:1917   */\n  lt\n    /* \"#utility.yul\":1895:1898   */\n  0x0133\n    /* \"#utility.yul\":1889:1893   */\n  dup4\n    /* \"#utility.yul\":1886:1899   */\n  lt\n    /* \"#utility.yul\":1882:1918   */\n  and\n    /* \"#utility.yul\":1864:1866   */\n  0x4e\n    /* \"#utility.yul\":1854:1862   */\n  dup5\n    /* \"#utility.yul\":1851:1867   */\n  lt\n    /* \"#utility.yul\":1846:1848   */\n  0x0b\n    /* \"#utility.yul\":1840:1844   */\n  dup5\n    /* \"#utility.yul\":1837:1849   */\n  lt\n    /* \"#utility.yul\":1833:1868   */\n  and\n    /* \"#utility.yul\":1817:1928   */\n  or\n    /* \"#utility.yul\":1814:2060   */\n  iszero\n  tag_38\n  jumpi\n    /* \"#utility.yul\":1970:1978   */\n  dup3\n    /* \"#utility.yul\":1964:1968   */\n  dup3\n    /* \"#utility.yul\":1960:1979   */\n  exp\n    /* \"#utility.yul\":1951:1979   */\n  swap1\n  pop\n    /* \"#utility.yul\":2005:2008   */\n  dup4\n    /* \"#utility.yul\":1998:2003   */\n  dup2\n    /* \"#utility.yul\":1995:2009   */\n  gt\n    /* \"#utility.yul\":1992:2032   */\n  iszero\n  tag_39\n  jumpi\n    /* \"#utility.yul\":2012:2030   */\n  tag_40\n  tag_11\n  jump\t// in\ntag_40:\n    /* \"#utility.yul\":1992:2032   */\ntag_39:\n    /* \"#utility.yul\":2045:2050   */\n  jump(tag_28)\n    /* \"#utility.yul\":1814:2060   */\ntag_38:\n    /* \"#utility.yul\":2085:2127   */\n  tag_41\n    /* \"#utility.yul\":2123:2126   */\n  dup5\n    /* \"#utility.yul\":2113:2121   */\n  dup5\n    /* \"#utility.yul\":2107:2111   */\n  dup5\n    /* \"#utility.yul\":2104:2105   */\n  0x01\n    /* \"#utility.yul\":2085:2127   */\n  tag_13\n  jump\t// in\ntag_41:\n    /* \"#utility.yul\":2070:2127   */\n  swap3\n  pop\n  swap1\n  pop\n    /* \"#utility.yul\":2159:2163   */\n  dup2\n    /* \"#utility.yul\":2154:2157   */\n  dup5\n    /* \"#utility.yul\":2150:2164   */\n  div\n    /* \"#utility.yul\":2143:2148   */\n  dup2\n    /* \"#utility.yul\":2140:2165   */\n  gt\n    /* \"#utility.yul\":2137:2188   */\n  iszero\n  tag_42\n  jumpi\n    /* \"#utility.yul\":2168:2186   */\n  tag_43\n  tag_11\n  jump\t// in\ntag_43:\n    /* \"#utility.yul\":2137:2188   */\ntag_42:\n    /* \"#utility.yul\":2217:2221   */\n  dup2\n    /* \"#utility.yul\":2210:2215   */\n  dup2\n    /* \"#utility.yul\":2206:2222   */\n  mul\n    /* \"#utility.yul\":2197:2222   */\n  swap1\n  pop\n    /* \"#utility.yul\":1155:2228   */\ntag_28:\n  swap4\n  swap3\n  pop\n  pop\n  pop\n  jump\t// out\n    /* \"#utility.yul\":2234:2311   */\ntag_15:\n    /* \"#utility.yul\":2271:2278   */\n  0x00\n    /* \"#utility.yul\":2300:2305   */\n  dup2\n    /* \"#utility.yul\":2289:2305   */\n  swap1\n  pop\n    /* \"#utility.yul\":2234:2311   */\n  swap2\n  swap1\n  pop\n  jump\t// out\n    /* \"#utility.yul\":2317:2602   */\ntag_5:\n    /* \"#utility.yul\":2377:2382   */\n  0x00\n    /* \"#utility.yul\":2401:2424   */\n  tag_46\n    /* \"#utility.yul\":2419:2423   */\n  dup3\n    /* \"#utility.yul\":2401:2424   */\n  tag_15\n  jump\t// in\ntag_46:\n    /* \"#utility.yul\":2393:2424   */\n  swap2\n  pop\n    /* \"#utility.yul\":2445:2472   */\n  tag_47\n    /* \"#utility.yul\":2463:2471   */\n  dup4\n    /* \"#utility.yul\":2445:2472   */\n  tag_15\n  jump\t// in\ntag_47:\n    /* \"#utility.yul\":2433:2472   */\n  swap3\n  pop\n    /* \"#utility.yul\":2491:2595   */\n  tag_48\n    /* \"#utility.yul\":2528:2594   */\n  0xffffffffffffffffffffffffffffffffffffffffffffffffffffffffffffffff\n    /* \"#utility.yul\":2518:2526   */\n  dup5\n    /* \"#utility.yul\":2512:2516   */\n  dup5\n    /* \"#utility.yul\":2491:2595   */\n  tag_14\n  jump\t// in\ntag_48:\n    /* \"#utility.yul\":2482:2595   */\n  swap1\n  pop\n    /* \"#utility.yul\":2317:2602   */\n  swap3\n  swap2\n  pop\n  pop\n  jump\t// out\n    /* \"#utility.yul\":2608:3018   */\ntag_7:\n    /* \"#utility.yul\":2648:2655   */\n  0x00\n    /* \"#utility.yul\":2671:2691   */\n  tag_50\n    /* \"#utility.yul\":2689:2690   */\n  dup3\n    /* \"#utility.yul\":2671:2691   */\n  tag_15\n  jump\t// in\ntag_50:\n    /* \"#utility.yul\":2666:2691   */\n  swap2\n  pop\n    /* \"#utility.yul\":2705:2725   */\n  tag_51\n    /* \"#utility.yul\":2723:2724   */\n  dup4\n    /* \"#utility.yul\":2705:2725   */\n  tag_15\n  jump\t// in\ntag_51:\n    /* \"#utility.yul\":2700:2725   */\n  swap3\n  pop\n    /* \"#utility.yul\":2760:2761   */\n  dup3\n    /* \"#utility.yul\":2757:2758   */\n  dup3\n    /* \"#utility.yul\":2753:2762   */\n  mul\n    /* \"#utility.yul\":2782:2812   */\n  tag_52\n    /* \"#utility.yul\":2800:2811   */\n  dup2\n    /* \"#utility.yul\":2782:2812   */\n  tag_15\n  jump\t// in\ntag_52:\n    /* \"#utility.yul\":2771:2812   */\n  swap2\n  pop\n    /* \"#utility.yul\":2961:2962   */\n  dup3\n    /* \"#utility.yul\":2952:2959   */\n  dup3\n    /* \"#utility.yul\":2948:2963   */\n  div\n    /* \"#utility.yul\":2945:2946   */\n  dup5\n    /* \"#utility.yul\":2942:2964   */\n  eq\n    /* \"#utility.yul\":2922:2923   */\n  dup4\n    /* \"#utility.yul\":2915:2924   */\n  iszero\n    /* \"#utility.yul\":2895:2978   */\n  or\n    /* \"#utility.yul\":2872:3011   */\n  tag_53\n  jumpi\n    /* \"#utility.yul\":2991:3009   */\n  tag_54\n  tag_11\n  jump\t// in\ntag_54:\n    /* \"#utility.yul\":2872:3011   */\ntag_53:\n    /* \"#utility.yul\":2656:3018   */\n  pop\n    /* \"#utility.yul\":2608:3018   */\n  swap3\n  swap2\n  pop\n  pop\n  jump\t// out\n    /* \"#utility.yul\":3024:3142   */\ntag_16:\n    /* \"#utility.yul\":3111:3135   */\n  tag_56\n    /* \"#utility.yul\":3129:3134   */\n  dup2\n    /* \"#utility.yul\":3111:3135   */\n  tag_15\n  jump\t// in\ntag_56:\n    /* \"#utility.yul\":3106:3109   */\n  dup3\n    /* \"#utility.yul\":3099:3136   */\n  mstore\n    /* \"#utility.yul\":3024:3142   */\n  pop\n  pop\n  jump\t// out\n    /* \"#utility.yul\":3148:3370   */\ntag_9:\n    /* \"#utility.yul\":3241:3245   */\n  0x00\n    /* \"#utility.yul\":3279:3281   */\n  0x20\n    /* \"#utility.yul\":3268:3277   */\n  dup3\n    /* \"#utility.yul\":3264:3282   */\n  add\n    /* \"#utility.yul\":3256:3282   */\n  swap1\n  pop\n    /* \"#utility.yul\":3292:3363   */\n  tag_58\n    /* \"#utility.yul\":3360:3361   */\n  0x00\n    /* \"#utility.yul\":3349:3358   */\n  dup4\n    /* \"#utility.yul\":3345:3362   */\n  add\n    /* \"#utility.yul\":3336:3342   */\n  dup5\n    /* \"#utility.yul\":3292:3363   */\n  tag_16\n  jump\t// in\ntag_58:\n    /* \"#utility.yul\":3148:3370   */\n  swap3\n  swap2\n  pop\n  pop\n  jump\t// out\n    /* \"contracts/PIP_Token/PIP_Token.sol\":774:3647  contract PIP_Tokens is IToken {... */\ntag_10:\n  dataSize(sub_0)\n  dup1\n  dataOffset(sub_0)\n  0x00\n  codecopy\n  0x00\n  return\nstop\n\nsub_0: assembly {\n        /* \"contracts/PIP_Token/PIP_Token.sol\":774:3647  contract PIP_Tokens is IToken {... */\n      mstore(0x40, 0x80)\n      callvalue\n      dup1\n      iszero\n      tag_1\n      jumpi\n      0x00\n      dup1\n      revert\n    tag_1:\n      pop\n      jumpi(tag_2, lt(calldatasize, 0x04))\n      shr(0xe0, calldataload(0x00))\n      dup1\n      0x70a08231\n      gt\n      tag_13\n      jumpi\n      dup1\n      0x70a08231\n      eq\n      tag_8\n      jumpi\n      dup1\n      0x95d89b41\n      eq\n      tag_9\n      jumpi\n      dup1\n      0xa9059cbb\n      eq\n      tag_10\n      jumpi\n      dup1\n      0xc3b2d337\n      eq\n      tag_11\n      jumpi\n      dup1\n      0xdd62ed3e\n      eq\n      tag_12\n      jumpi\n      jump(tag_2)\n    tag_13:\n      dup1\n      0x06fdde03\n      eq\n      tag_3\n      jumpi\n      dup1\n      0x095ea7b3\n      eq\n      tag_4\n      jumpi\n      dup1\n      0x18160ddd\n      eq\n      tag_5\n      jumpi\n      dup1\n      0x23b872dd\n      eq\n      tag_6\n      jumpi\n      dup1\n      0x313ce567\n      eq\n      tag_7\n      jumpi\n    tag_2:\n      0x00\n      dup1\n      revert\n        /* \"contracts/PIP_Token/PIP_Token.sol\":811:852  string public constant name = \"PIP_Token\" */\n    tag_3:\n      tag_14\n      tag_15\n      jump\t// in\n    tag_14:\n      mload(0x40)\n      tag_16\n      swap2\n      swap1\n      tag_17\n      jump\t// in\n    tag_16:\n      mload(0x40)\n      dup1\n      swap2\n      sub\n      swap1\n      return\n        /* \"contracts/PIP_Token/PIP_Token.sol\":3187:3411  function approve(address _spender, uint256 _value) public override returns (bool success) {... */\n    tag_4:\n      tag_18\n      0x04\n      dup1\n      calldatasize\n      sub\n      dup2\n      add\n      swap1\n      tag_19\n      swap2\n      swap1\n      tag_20\n      jump\t// in\n    tag_19:\n      tag_21\n      jump\t// in\n    tag_18:\n      mload(0x40)\n      tag_22\n      swap2\n      swap1\n      tag_23\n      jump\t// in\n    tag_22:\n      mload(0x40)\n      dup1\n      swap2\n      sub\n      swap1\n      return\n        /* \"contracts/PIP_Token/PIP_Token.sol\":1835:1935  function totalSupply() public view override returns (uint256) {... */\n    tag_5:\n      tag_24\n      tag_25\n      jump\t// in\n    tag_24:\n      mload(0x40)\n      tag_26\n      swap2\n      swap1\n      tag_27\n      jump\t// in\n    tag_26:\n      mload(0x40)\n      dup1\n      swap2\n      sub\n      swap1\n      return\n        /* \"contracts/PIP_Token/PIP_Token.sol\":2582:3112  function transferFrom(address _from, address _to, uint256 _value) public override returns (bool success) {... */\n    tag_6:\n      tag_28\n      0x04\n      dup1\n      calldatasize\n      sub\n      dup2\n      add\n      swap1\n      tag_29\n      swap2\n      swap1\n      tag_30\n      jump\t// in\n    tag_29:\n      tag_31\n      jump\t// in\n    tag_28:\n      mload(0x40)\n      tag_32\n      swap2\n      swap1\n      tag_23\n      jump\t// in\n    tag_32:\n      mload(0x40)\n      dup1\n      swap2\n      sub\n      swap1\n      return\n        /* \"contracts/PIP_Token/PIP_Token.sol\":947:982  uint8 public constant decimals = 18 */\n    tag_7:\n      tag_33\n      tag_34\n      jump\t// in\n    tag_33:\n      mload(0x40)\n      tag_35\n      swap2\n      swap1\n      tag_36\n      jump\t// in\n    tag_35:\n      mload(0x40)\n      dup1\n      swap2\n      sub\n      swap1\n      return\n        /* \"contracts/PIP_Token/PIP_Token.sol\":1995:2112  function balanceOf(address _owner) public view override returns (uint256) {... */\n    tag_8:\n      tag_37\n      0x04\n      dup1\n      calldatasize\n      sub\n      dup2\n      add\n      swap1\n      tag_38\n      swap2\n      swap1\n      tag_39\n      jump\t// in\n    tag_38:\n      tag_40\n      jump\t// in\n    tag_37:\n      mload(0x40)\n      tag_41\n      swap2\n      swap1\n      tag_27\n      jump\t// in\n    tag_41:\n      mload(0x40)\n      dup1\n      swap2\n      sub\n      swap1\n      return\n        /* \"contracts/PIP_Token/PIP_Token.sol\":877:914  string public constant symbol = \"PIP\" */\n    tag_9:\n      tag_42\n      tag_43\n      jump\t// in\n    tag_42:\n      mload(0x40)\n      tag_44\n      swap2\n      swap1\n      tag_17\n      jump\t// in\n    tag_44:\n      mload(0x40)\n      dup1\n      swap2\n      sub\n      swap1\n      return\n        /* \"contracts/PIP_Token/PIP_Token.sol\":2192:2507  function transfer(address _to, uint256 _value) public override returns (bool success) {... */\n    tag_10:\n      tag_45\n      0x04\n      dup1\n      calldatasize\n      sub\n      dup2\n      add\n      swap1\n      tag_46\n      swap2\n      swap1\n      tag_20\n      jump\t// in\n    tag_46:\n      tag_47\n      jump\t// in\n    tag_45:\n      mload(0x40)\n      tag_48\n      swap2\n      swap1\n      tag_23\n      jump\t// in\n    tag_48:\n      mload(0x40)\n      dup1\n      swap2\n      sub\n      swap1\n      return\n        /* \"contracts/PIP_Token/PIP_Token.sol\":1021:1097  uint256 public constant _initialSupply = 1000000 * (10 ** uint256(decimals)) */\n    tag_11:\n      tag_49\n      tag_50\n      jump\t// in\n    tag_49:\n      mload(0x40)\n      tag_51\n      swap2\n      swap1\n      tag_27\n      jump\t// in\n    tag_51:\n      mload(0x40)\n      dup1\n      swap2\n      sub\n      swap1\n      return\n        /* \"contracts/PIP_Token/PIP_Token.sol\":3500:3644  function allowance(address _owner, address _spender) public view override returns (uint256) {... */\n    tag_12:\n      tag_52\n      0x04\n      dup1\n      calldatasize\n      sub\n      dup2\n      add\n      swap1\n      tag_53\n      swap2\n      swap1\n      tag_54\n      jump\t// in\n    tag_53:\n      tag_55\n      jump\t// in\n    tag_52:\n      mload(0x40)\n      tag_56\n      swap2\n      swap1\n      tag_27\n      jump\t// in\n    tag_56:\n      mload(0x40)\n      dup1\n      swap2\n      sub\n      swap1\n      return\n        /* \"contracts/PIP_Token/PIP_Token.sol\":811:852  string public constant name = \"PIP_Token\" */\n    tag_15:\n      mload(0x40)\n      dup1\n      0x40\n      add\n      0x40\n      mstore\n      dup1\n      0x09\n      dup2\n      mstore\n      0x20\n      add\n      0x5049505f546f6b656e0000000000000000000000000000000000000000000000\n      dup2\n      mstore\n      pop\n      dup2\n      jump\t// out\n        /* \"contracts/PIP_Token/PIP_Token.sol\":3187:3411  function approve(address _spender, uint256 _value) public override returns (bool success) {... */\n    tag_21:\n        /* \"contracts/PIP_Token/PIP_Token.sol\":3263:3275  bool success */\n      0x00\n        /* \"contracts/PIP_Token/PIP_Token.sol\":3321:3327  _value */\n      dup2\n        /* \"contracts/PIP_Token/PIP_Token.sol\":3288:3296  _allowed */\n      0x01\n        /* \"contracts/PIP_Token/PIP_Token.sol\":3288:3308  _allowed[msg.sender] */\n      0x00\n        /* \"contracts/PIP_Token/PIP_Token.sol\":3297:3307  msg.sender */\n      caller\n        /* \"contracts/PIP_Token/PIP_Token.sol\":3288:3308  _allowed[msg.sender] */\n      0xffffffffffffffffffffffffffffffffffffffff\n      and\n      0xffffffffffffffffffffffffffffffffffffffff\n      and\n      dup2\n      mstore\n      0x20\n      add\n      swap1\n      dup2\n      mstore\n      0x20\n      add\n      0x00\n      keccak256\n        /* \"contracts/PIP_Token/PIP_Token.sol\":3288:3318  _allowed[msg.sender][_spender] */\n      0x00\n        /* \"contracts/PIP_Token/PIP_Token.sol\":3309:3317  _spender */\n      dup6\n        /* \"contracts/PIP_Token/PIP_Token.sol\":3288:3318  _allowed[msg.sender][_spender] */\n      0xffffffffffffffffffffffffffffffffffffffff\n      and\n      0xffffffffffffffffffffffffffffffffffffffff\n      and\n      dup2\n      mstore\n      0x20\n      add\n      swap1\n      dup2\n      mstore\n      0x20\n      add\n      0x00\n      keccak256\n        /* \"contracts/PIP_Token/PIP_Token.sol\":3288:3327  _allowed[msg.sender][_spender] = _value */\n      dup2\n      swap1\n      sstore\n      pop\n        /* \"contracts/PIP_Token/PIP_Token.sol\":3364:3372  _spender */\n      dup3\n        /* \"contracts/PIP_Token/PIP_Token.sol\":3343:3381  Approval(msg.sender, _spender, _value) */\n      0xffffffffffffffffffffffffffffffffffffffff\n      and\n        /* \"contracts/PIP_Token/PIP_Token.sol\":3352:3362  msg.sender */\n      caller\n        /* \"contracts/PIP_Token/PIP_Token.sol\":3343:3381  Approval(msg.sender, _spender, _value) */\n      0xffffffffffffffffffffffffffffffffffffffff\n      and\n      0x8c5be1e5ebec7d5bd14f71427d1e84f3dd0314c0f7b2291e5b200ac8c7c3b925\n        /* \"contracts/PIP_Token/PIP_Token.sol\":3374:3380  _value */\n      dup5\n        /* \"contracts/PIP_Token/PIP_Token.sol\":3343:3381  Approval(msg.sender, _spender, _value) */\n      mload(0x40)\n      tag_58\n      swap2\n      swap1\n      tag_27\n      jump\t// in\n    tag_58:\n      mload(0x40)\n      dup1\n      swap2\n      sub\n      swap1\n      log3\n        /* \"contracts/PIP_Token/PIP_Token.sol\":3399:3403  true */\n      0x01\n        /* \"contracts/PIP_Token/PIP_Token.sol\":3392:3403  return true */\n      swap1\n      pop\n        /* \"contracts/PIP_Token/PIP_Token.sol\":3187:3411  function approve(address _spender, uint256 _value) public override returns (bool success) {... */\n      swap3\n      swap2\n      pop\n      pop\n      jump\t// out\n        /* \"contracts/PIP_Token/PIP_Token.sol\":1835:1935  function totalSupply() public view override returns (uint256) {... */\n    tag_25:\n        /* \"contracts/PIP_Token/PIP_Token.sol\":1888:1895  uint256 */\n      0x00\n        /* \"contracts/PIP_Token/PIP_Token.sol\":1915:1927  _totalSupply */\n      sload(0x02)\n        /* \"contracts/PIP_Token/PIP_Token.sol\":1908:1927  return _totalSupply */\n      swap1\n      pop\n        /* \"contracts/PIP_Token/PIP_Token.sol\":1835:1935  function totalSupply() public view override returns (uint256) {... */\n      swap1\n      jump\t// out\n        /* \"contracts/PIP_Token/PIP_Token.sol\":2582:3112  function transferFrom(address _from, address _to, uint256 _value) public override returns (bool success) {... */\n    tag_31:\n        /* \"contracts/PIP_Token/PIP_Token.sol\":2673:2685  bool success */\n      0x00\n        /* \"contracts/PIP_Token/PIP_Token.sol\":2698:2716  uint256 _allowance */\n      dup1\n        /* \"contracts/PIP_Token/PIP_Token.sol\":2719:2727  _allowed */\n      0x01\n        /* \"contracts/PIP_Token/PIP_Token.sol\":2719:2734  _allowed[_from] */\n      0x00\n        /* \"contracts/PIP_Token/PIP_Token.sol\":2728:2733  _from */\n      dup7\n        /* \"contracts/PIP_Token/PIP_Token.sol\":2719:2734  _allowed[_from] */\n      0xffffffffffffffffffffffffffffffffffffffff\n      and\n      0xffffffffffffffffffffffffffffffffffffffff\n      and\n      dup2\n      mstore\n      0x20\n      add\n      swap1\n      dup2\n      mstore\n      0x20\n      add\n      0x00\n      keccak256\n        /* \"contracts/PIP_Token/PIP_Token.sol\":2719:2746  _allowed[_from][msg.sender] */\n      0x00\n        /* \"contracts/PIP_Token/PIP_Token.sol\":2735:2745  msg.sender */\n      caller\n        /* \"contracts/PIP_Token/PIP_Token.sol\":2719:2746  _allowed[_from][msg.sender] */\n      0xffffffffffffffffffffffffffffffffffffffff\n      and\n      0xffffffffffffffffffffffffffffffffffffffff\n      and\n      dup2\n      mstore\n      0x20\n      add\n      swap1\n      dup2\n      mstore\n      0x20\n      add\n      0x00\n      keccak256\n      sload\n        /* \"contracts/PIP_Token/PIP_Token.sol\":2698:2746  uint256 _allowance = _allowed[_from][msg.sender] */\n      swap1\n      pop\n        /* \"contracts/PIP_Token/PIP_Token.sol\":2785:2791  _value */\n      dup3\n        /* \"contracts/PIP_Token/PIP_Token.sol\":2765:2774  _balances */\n      0x00\n        /* \"contracts/PIP_Token/PIP_Token.sol\":2765:2781  _balances[_from] */\n      dup1\n        /* \"contracts/PIP_Token/PIP_Token.sol\":2775:2780  _from */\n      dup8\n        /* \"contracts/PIP_Token/PIP_Token.sol\":2765:2781  _balances[_from] */\n      0xffffffffffffffffffffffffffffffffffffffff\n      and\n      0xffffffffffffffffffffffffffffffffffffffff\n      and\n      dup2\n      mstore\n      0x20\n      add\n      swap1\n      dup2\n      mstore\n      0x20\n      add\n      0x00\n      keccak256\n      sload\n        /* \"contracts/PIP_Token/PIP_Token.sol\":2765:2791  _balances[_from] >= _value */\n      lt\n      iszero\n        /* \"contracts/PIP_Token/PIP_Token.sol\":2765:2815  _balances[_from] >= _value && _allowance >= _value */\n      dup1\n      iszero\n      tag_61\n      jumpi\n      pop\n        /* \"contracts/PIP_Token/PIP_Token.sol\":2809:2815  _value */\n      dup3\n        /* \"contracts/PIP_Token/PIP_Token.sol\":2795:2805  _allowance */\n      dup2\n        /* \"contracts/PIP_Token/PIP_Token.sol\":2795:2815  _allowance >= _value */\n      lt\n      iszero\n        /* \"contracts/PIP_Token/PIP_Token.sol\":2765:2815  _balances[_from] >= _value && _allowance >= _value */\n    tag_61:\n        /* \"contracts/PIP_Token/PIP_Token.sol\":2757:2856  require(_balances[_from] >= _value && _allowance >= _value, \"Saldo insuficiente ou nao autorizado\") */\n      tag_62\n      jumpi\n      mload(0x40)\n      0x08c379a000000000000000000000000000000000000000000000000000000000\n      dup2\n      mstore\n      0x04\n      add\n      tag_63\n      swap1\n      tag_64\n      jump\t// in\n    tag_63:\n      mload(0x40)\n      dup1\n      swap2\n      sub\n      swap1\n      revert\n    tag_62:\n        /* \"contracts/PIP_Token/PIP_Token.sol\":2887:2893  _value */\n      dup3\n        /* \"contracts/PIP_Token/PIP_Token.sol\":2867:2876  _balances */\n      0x00\n        /* \"contracts/PIP_Token/PIP_Token.sol\":2867:2883  _balances[_from] */\n      dup1\n        /* \"contracts/PIP_Token/PIP_Token.sol\":2877:2882  _from */\n      dup8\n        /* \"contracts/PIP_Token/PIP_Token.sol\":2867:2883  _balances[_from] */\n      0xffffffffffffffffffffffffffffffffffffffff\n      and\n      0xffffffffffffffffffffffffffffffffffffffff\n      and\n      dup2\n      mstore\n      0x20\n      add\n      swap1\n      dup2\n      mstore\n      0x20\n      add\n      0x00\n      keccak256\n      0x00\n        /* \"contracts/PIP_Token/PIP_Token.sol\":2867:2893  _balances[_from] -= _value */\n      dup3\n      dup3\n      sload\n      tag_65\n      swap2\n      swap1\n      tag_66\n      jump\t// in\n    tag_65:\n      swap3\n      pop\n      pop\n      dup2\n      swap1\n      sstore\n      pop\n        /* \"contracts/PIP_Token/PIP_Token.sol\":2922:2928  _value */\n      dup3\n        /* \"contracts/PIP_Token/PIP_Token.sol\":2904:2913  _balances */\n      0x00\n        /* \"contracts/PIP_Token/PIP_Token.sol\":2904:2918  _balances[_to] */\n      dup1\n        /* \"contracts/PIP_Token/PIP_Token.sol\":2914:2917  _to */\n      dup7\n        /* \"contracts/PIP_Token/PIP_Token.sol\":2904:2918  _balances[_to] */\n      0xffffffffffffffffffffffffffffffffffffffff\n      and\n      0xffffffffffffffffffffffffffffffffffffffff\n      and\n      dup2\n      mstore\n      0x20\n      add\n      swap1\n      dup2\n      mstore\n      0x20\n      add\n      0x00\n      keccak256\n      0x00\n        /* \"contracts/PIP_Token/PIP_Token.sol\":2904:2928  _balances[_to] += _value */\n      dup3\n      dup3\n      sload\n      tag_67\n      swap2\n      swap1\n      tag_68\n      jump\t// in\n    tag_67:\n      swap3\n      pop\n      pop\n      dup2\n      swap1\n      sstore\n      pop\n        /* \"contracts/PIP_Token/PIP_Token.sol\":2956:2973  type(uint256).max */\n      0xffffffffffffffffffffffffffffffffffffffffffffffffffffffffffffffff\n        /* \"contracts/PIP_Token/PIP_Token.sol\":2943:2953  _allowance */\n      dup2\n        /* \"contracts/PIP_Token/PIP_Token.sol\":2943:2973  _allowance < type(uint256).max */\n      lt\n        /* \"contracts/PIP_Token/PIP_Token.sol\":2939:3039  if (_allowance < type(uint256).max) {... */\n      iszero\n      tag_69\n      jumpi\n        /* \"contracts/PIP_Token/PIP_Token.sol\":3021:3027  _value */\n      dup3\n        /* \"contracts/PIP_Token/PIP_Token.sol\":2990:2998  _allowed */\n      0x01\n        /* \"contracts/PIP_Token/PIP_Token.sol\":2990:3005  _allowed[_from] */\n      0x00\n        /* \"contracts/PIP_Token/PIP_Token.sol\":2999:3004  _from */\n      dup8\n        /* \"contracts/PIP_Token/PIP_Token.sol\":2990:3005  _allowed[_from] */\n      0xffffffffffffffffffffffffffffffffffffffff\n      and\n      0xffffffffffffffffffffffffffffffffffffffff\n      and\n      dup2\n      mstore\n      0x20\n      add\n      swap1\n      dup2\n      mstore\n      0x20\n      add\n      0x00\n      keccak256\n        /* \"contracts/PIP_Token/PIP_Token.sol\":2990:3017  _allowed[_from][msg.sender] */\n      0x00\n        /* \"contracts/PIP_Token/PIP_Token.sol\":3006:3016  msg.sender */\n      caller\n        /* \"contracts/PIP_Token/PIP_Token.sol\":2990:3017  _allowed[_from][msg.sender] */\n      0xffffffffffffffffffffffffffffffffffffffff\n      and\n      0xffffffffffffffffffffffffffffffffffffffff\n      and\n      dup2\n      mstore\n      0x20\n      add\n      swap1\n      dup2\n      mstore\n      0x20\n      add\n      0x00\n      keccak256\n      0x00\n        /* \"contracts/PIP_Token/PIP_Token.sol\":2990:3027  _allowed[_from][msg.sender] -= _value */\n      dup3\n      dup3\n      sload\n      tag_70\n      swap2\n      swap1\n      tag_66\n      jump\t// in\n    tag_70:\n      swap3\n      pop\n      pop\n      dup2\n      swap1\n      sstore\n      pop\n        /* \"contracts/PIP_Token/PIP_Token.sol\":2939:3039  if (_allowance < type(uint256).max) {... */\n    tag_69:\n        /* \"contracts/PIP_Token/PIP_Token.sol\":3070:3073  _to */\n      dup4\n        /* \"contracts/PIP_Token/PIP_Token.sol\":3054:3082  Transfer(_from, _to, _value) */\n      0xffffffffffffffffffffffffffffffffffffffff\n      and\n        /* \"contracts/PIP_Token/PIP_Token.sol\":3063:3068  _from */\n      dup6\n        /* \"contracts/PIP_Token/PIP_Token.sol\":3054:3082  Transfer(_from, _to, _value) */\n      0xffffffffffffffffffffffffffffffffffffffff\n      and\n      0xddf252ad1be2c89b69c2b068fc378daa952ba7f163c4a11628f55a4df523b3ef\n        /* \"contracts/PIP_Token/PIP_Token.sol\":3075:3081  _value */\n      dup6\n        /* \"contracts/PIP_Token/PIP_Token.sol\":3054:3082  Transfer(_from, _to, _value) */\n      mload(0x40)\n      tag_71\n      swap2\n      swap1\n      tag_27\n      jump\t// in\n    tag_71:\n      mload(0x40)\n      dup1\n      swap2\n      sub\n      swap1\n      log3\n        /* \"contracts/PIP_Token/PIP_Token.sol\":3100:3104  true */\n      0x01\n        /* \"contracts/PIP_Token/PIP_Token.sol\":3093:3104  return true */\n      swap2\n      pop\n      pop\n        /* \"contracts/PIP_Token/PIP_Token.sol\":2582:3112  function transferFrom(address _from, address _to, uint256 _value) public override returns (bool success) {... */\n      swap4\n      swap3\n      pop\n      pop\n      pop\n      jump\t// out\n        /* \"contracts/PIP_Token/PIP_Token.sol\":947:982  uint8 public constant decimals = 18 */\n    tag_34:\n        /* \"contracts/PIP_Token/PIP_Token.sol\":980:982  18 */\n      0x12\n        /* \"contracts/PIP_Token/PIP_Token.sol\":947:982  uint8 public constant decimals = 18 */\n      dup2\n      jump\t// out\n        /* \"contracts/PIP_Token/PIP_Token.sol\":1995:2112  function balanceOf(address _owner) public view override returns (uint256) {... */\n    tag_40:\n        /* \"contracts/PIP_Token/PIP_Token.sol\":2060:2067  uint256 */\n      0x00\n        /* \"contracts/PIP_Token/PIP_Token.sol\":2087:2096  _balances */\n      dup1\n        /* \"contracts/PIP_Token/PIP_Token.sol\":2087:2104  _balances[_owner] */\n      0x00\n        /* \"contracts/PIP_Token/PIP_Token.sol\":2097:2103  _owner */\n      dup4\n        /* \"contracts/PIP_Token/PIP_Token.sol\":2087:2104  _balances[_owner] */\n      0xffffffffffffffffffffffffffffffffffffffff\n      and\n      0xffffffffffffffffffffffffffffffffffffffff\n      and\n      dup2\n      mstore\n      0x20\n      add\n      swap1\n      dup2\n      mstore\n      0x20\n      add\n      0x00\n      keccak256\n      sload\n        /* \"contracts/PIP_Token/PIP_Token.sol\":2080:2104  return _balances[_owner] */\n      swap1\n      pop\n        /* \"contracts/PIP_Token/PIP_Token.sol\":1995:2112  function balanceOf(address _owner) public view override returns (uint256) {... */\n      swap2\n      swap1\n      pop\n      jump\t// out\n        /* \"contracts/PIP_Token/PIP_Token.sol\":877:914  string public constant symbol = \"PIP\" */\n    tag_43:\n      mload(0x40)\n      dup1\n      0x40\n      add\n      0x40\n      mstore\n      dup1\n      0x03\n      dup2\n      mstore\n      0x20\n      add\n      0x5049500000000000000000000000000000000000000000000000000000000000\n      dup2\n      mstore\n      pop\n      dup2\n      jump\t// out\n        /* \"contracts/PIP_Token/PIP_Token.sol\":2192:2507  function transfer(address _to, uint256 _value) public override returns (bool success) {... */\n    tag_47:\n        /* \"contracts/PIP_Token/PIP_Token.sol\":2264:2276  bool success */\n      0x00\n        /* \"contracts/PIP_Token/PIP_Token.sol\":2322:2328  _value */\n      dup2\n        /* \"contracts/PIP_Token/PIP_Token.sol\":2297:2306  _balances */\n      0x00\n        /* \"contracts/PIP_Token/PIP_Token.sol\":2297:2318  _balances[msg.sender] */\n      dup1\n        /* \"contracts/PIP_Token/PIP_Token.sol\":2307:2317  msg.sender */\n      caller\n        /* \"contracts/PIP_Token/PIP_Token.sol\":2297:2318  _balances[msg.sender] */\n      0xffffffffffffffffffffffffffffffffffffffff\n      and\n      0xffffffffffffffffffffffffffffffffffffffff\n      and\n      dup2\n      mstore\n      0x20\n      add\n      swap1\n      dup2\n      mstore\n      0x20\n      add\n      0x00\n      keccak256\n      sload\n        /* \"contracts/PIP_Token/PIP_Token.sol\":2297:2328  _balances[msg.sender] >= _value */\n      lt\n      iszero\n        /* \"contracts/PIP_Token/PIP_Token.sol\":2289:2351  require(_balances[msg.sender] >= _value, \"Saldo insuficiente\") */\n      tag_74\n      jumpi\n      mload(0x40)\n      0x08c379a000000000000000000000000000000000000000000000000000000000\n      dup2\n      mstore\n      0x04\n      add\n      tag_75\n      swap1\n      tag_76\n      jump\t// in\n    tag_75:\n      mload(0x40)\n      dup1\n      swap2\n      sub\n      swap1\n      revert\n    tag_74:\n        /* \"contracts/PIP_Token/PIP_Token.sol\":2387:2393  _value */\n      dup2\n        /* \"contracts/PIP_Token/PIP_Token.sol\":2362:2371  _balances */\n      0x00\n        /* \"contracts/PIP_Token/PIP_Token.sol\":2362:2383  _balances[msg.sender] */\n      dup1\n        /* \"contracts/PIP_Token/PIP_Token.sol\":2372:2382  msg.sender */\n      caller\n        /* \"contracts/PIP_Token/PIP_Token.sol\":2362:2383  _balances[msg.sender] */\n      0xffffffffffffffffffffffffffffffffffffffff\n      and\n      0xffffffffffffffffffffffffffffffffffffffff\n      and\n      dup2\n      mstore\n      0x20\n      add\n      swap1\n      dup2\n      mstore\n      0x20\n      add\n      0x00\n      keccak256\n      0x00\n        /* \"contracts/PIP_Token/PIP_Token.sol\":2362:2393  _balances[msg.sender] -= _value */\n      dup3\n      dup3\n      sload\n      tag_77\n      swap2\n      swap1\n      tag_66\n      jump\t// in\n    tag_77:\n      swap3\n      pop\n      pop\n      dup2\n      swap1\n      sstore\n      pop\n        /* \"contracts/PIP_Token/PIP_Token.sol\":2422:2428  _value */\n      dup2\n        /* \"contracts/PIP_Token/PIP_Token.sol\":2404:2413  _balances */\n      0x00\n        /* \"contracts/PIP_Token/PIP_Token.sol\":2404:2418  _balances[_to] */\n      dup1\n        /* \"contracts/PIP_Token/PIP_Token.sol\":2414:2417  _to */\n      dup6\n        /* \"contracts/PIP_Token/PIP_Token.sol\":2404:2418  _balances[_to] */\n      0xffffffffffffffffffffffffffffffffffffffff\n      and\n      0xffffffffffffffffffffffffffffffffffffffff\n      and\n      dup2\n      mstore\n      0x20\n      add\n      swap1\n      dup2\n      mstore\n      0x20\n      add\n      0x00\n      keccak256\n      0x00\n        /* \"contracts/PIP_Token/PIP_Token.sol\":2404:2428  _balances[_to] += _value */\n      dup3\n      dup3\n      sload\n      tag_78\n      swap2\n      swap1\n      tag_68\n      jump\t// in\n    tag_78:\n      swap3\n      pop\n      pop\n      dup2\n      swap1\n      sstore\n      pop\n        /* \"contracts/PIP_Token/PIP_Token.sol\":2465:2468  _to */\n      dup3\n        /* \"contracts/PIP_Token/PIP_Token.sol\":2444:2477  Transfer(msg.sender, _to, _value) */\n      0xffffffffffffffffffffffffffffffffffffffff\n      and\n        /* \"contracts/PIP_Token/PIP_Token.sol\":2453:2463  msg.sender */\n      caller\n        /* \"contracts/PIP_Token/PIP_Token.sol\":2444:2477  Transfer(msg.sender, _to, _value) */\n      0xffffffffffffffffffffffffffffffffffffffff\n      and\n      0xddf252ad1be2c89b69c2b068fc378daa952ba7f163c4a11628f55a4df523b3ef\n        /* \"contracts/PIP_Token/PIP_Token.sol\":2470:2476  _value */\n      dup5\n        /* \"contracts/PIP_Token/PIP_Token.sol\":2444:2477  Transfer(msg.sender, _to, _value) */\n      mload(0x40)\n      tag_79\n      swap2\n      swap1\n      tag_27\n      jump\t// in\n    tag_79:\n      mload(0x40)\n      dup1\n      swap2\n      sub\n      swap1\n      log3\n        /* \"contracts/PIP_Token/PIP_Token.sol\":2495:2499  true */\n      0x01\n        /* \"contracts/PIP_Token/PIP_Token.sol\":2488:2499  return true */\n      swap1\n      pop\n        /* \"contracts/PIP_Token/PIP_Token.sol\":2192:2507  function transfer(address _to, uint256 _value) public override returns (bool success) {... */\n      swap3\n      swap2\n      pop\n      pop\n      jump\t// out\n        /* \"contracts/PIP_Token/PIP_Token.sol\":1021:1097  uint256 public constant _initialSupply = 1000000 * (10 ** uint256(decimals)) */\n    tag_50:\n        /* \"contracts/PIP_Token/PIP_Token.sol\":980:982  18 */\n      0x12\n        /* \"contracts/PIP_Token/PIP_Token.sol\":1079:1096  uint256(decimals) */\n      0xff\n      and\n        /* \"contracts/PIP_Token/PIP_Token.sol\":1073:1075  10 */\n      0x0a\n        /* \"contracts/PIP_Token/PIP_Token.sol\":1073:1096  10 ** uint256(decimals) */\n      tag_80\n      swap2\n      swap1\n      tag_81\n      jump\t// in\n    tag_80:\n        /* \"contracts/PIP_Token/PIP_Token.sol\":1062:1069  1000000 */\n      0x0f4240\n        /* \"contracts/PIP_Token/PIP_Token.sol\":1062:1097  1000000 * (10 ** uint256(decimals)) */\n      tag_82\n      swap2\n      swap1\n      tag_83\n      jump\t// in\n    tag_82:\n        /* \"contracts/PIP_Token/PIP_Token.sol\":1021:1097  uint256 public constant _initialSupply = 1000000 * (10 ** uint256(decimals)) */\n      dup2\n      jump\t// out\n        /* \"contracts/PIP_Token/PIP_Token.sol\":3500:3644  function allowance(address _owner, address _spender) public view override returns (uint256) {... */\n    tag_55:\n        /* \"contracts/PIP_Token/PIP_Token.sol\":3583:3590  uint256 */\n      0x00\n        /* \"contracts/PIP_Token/PIP_Token.sol\":3610:3618  _allowed */\n      0x01\n        /* \"contracts/PIP_Token/PIP_Token.sol\":3610:3626  _allowed[_owner] */\n      0x00\n        /* \"contracts/PIP_Token/PIP_Token.sol\":3619:3625  _owner */\n      dup5\n        /* \"contracts/PIP_Token/PIP_Token.sol\":3610:3626  _allowed[_owner] */\n      0xffffffffffffffffffffffffffffffffffffffff\n      and\n      0xffffffffffffffffffffffffffffffffffffffff\n      and\n      dup2\n      mstore\n      0x20\n      add\n      swap1\n      dup2\n      mstore\n      0x20\n      add\n      0x00\n      keccak256\n        /* \"contracts/PIP_Token/PIP_Token.sol\":3610:3636  _allowed[_owner][_spender] */\n      0x00\n        /* \"contracts/PIP_Token/PIP_Token.sol\":3627:3635  _spender */\n      dup4\n        /* \"contracts/PIP_Token/PIP_Token.sol\":3610:3636  _allowed[_owner][_spender] */\n      0xffffffffffffffffffffffffffffffffffffffff\n      and\n      0xffffffffffffffffffffffffffffffffffffffff\n      and\n      dup2\n      mstore\n      0x20\n      add\n      swap1\n      dup2\n      mstore\n      0x20\n      add\n      0x00\n      keccak256\n      sload\n        /* \"contracts/PIP_Token/PIP_Token.sol\":3603:3636  return _allowed[_owner][_spender] */\n      swap1\n      pop\n        /* \"contracts/PIP_Token/PIP_Token.sol\":3500:3644  function allowance(address _owner, address _spender) public view override returns (uint256) {... */\n      swap3\n      swap2\n      pop\n      pop\n      jump\t// out\n        /* \"#utility.yul\":7:106   */\n    tag_85:\n        /* \"#utility.yul\":59:65   */\n      0x00\n        /* \"#utility.yul\":93:98   */\n      dup2\n        /* \"#utility.yul\":87:99   */\n      mload\n        /* \"#utility.yul\":77:99   */\n      swap1\n      pop\n        /* \"#utility.yul\":7:106   */\n      swap2\n      swap1\n      pop\n      jump\t// out\n        /* \"#utility.yul\":112:281   */\n    tag_86:\n        /* \"#utility.yul\":196:207   */\n      0x00\n        /* \"#utility.yul\":230:236   */\n      dup3\n        /* \"#utility.yul\":225:228   */\n      dup3\n        /* \"#utility.yul\":218:237   */\n      mstore\n        /* \"#utility.yul\":270:274   */\n      0x20\n        /* \"#utility.yul\":265:268   */\n      dup3\n        /* \"#utility.yul\":261:275   */\n      add\n        /* \"#utility.yul\":246:275   */\n      swap1\n      pop\n        /* \"#utility.yul\":112:281   */\n      swap3\n      swap2\n      pop\n      pop\n      jump\t// out\n        /* \"#utility.yul\":287:426   */\n    tag_87:\n        /* \"#utility.yul\":376:382   */\n      dup3\n        /* \"#utility.yul\":371:374   */\n      dup2\n        /* \"#utility.yul\":366:369   */\n      dup4\n        /* \"#utility.yul\":360:383   */\n      mcopy\n        /* \"#utility.yul\":417:418   */\n      0x00\n        /* \"#utility.yul\":408:414   */\n      dup4\n        /* \"#utility.yul\":403:406   */\n      dup4\n        /* \"#utility.yul\":399:415   */\n      add\n        /* \"#utility.yul\":392:419   */\n      mstore\n        /* \"#utility.yul\":287:426   */\n      pop\n      pop\n      pop\n      jump\t// out\n        /* \"#utility.yul\":432:534   */\n    tag_88:\n        /* \"#utility.yul\":473:479   */\n      0x00\n        /* \"#utility.yul\":524:526   */\n      0x1f\n        /* \"#utility.yul\":520:527   */\n      not\n        /* \"#utility.yul\":515:517   */\n      0x1f\n        /* \"#utility.yul\":508:513   */\n      dup4\n        /* \"#utility.yul\":504:518   */\n      add\n        /* \"#utility.yul\":500:528   */\n      and\n        /* \"#utility.yul\":490:528   */\n      swap1\n      pop\n        /* \"#utility.yul\":432:534   */\n      swap2\n      swap1\n      pop\n      jump\t// out\n        /* \"#utility.yul\":540:917   */\n    tag_89:\n        /* \"#utility.yul\":628:631   */\n      0x00\n        /* \"#utility.yul\":656:695   */\n      tag_119\n        /* \"#utility.yul\":689:694   */\n      dup3\n        /* \"#utility.yul\":656:695   */\n      tag_85\n      jump\t// in\n    tag_119:\n        /* \"#utility.yul\":711:782   */\n      tag_120\n        /* \"#utility.yul\":775:781   */\n      dup2\n        /* \"#utility.yul\":770:773   */\n      dup6\n        /* \"#utility.yul\":711:782   */\n      tag_86\n      jump\t// in\n    tag_120:\n        /* \"#utility.yul\":704:782   */\n      swap4\n      pop\n        /* \"#utility.yul\":791:856   */\n      tag_121\n        /* \"#utility.yul\":849:855   */\n      dup2\n        /* \"#utility.yul\":844:847   */\n      dup6\n        /* \"#utility.yul\":837:841   */\n      0x20\n        /* \"#utility.yul\":830:835   */\n      dup7\n        /* \"#utility.yul\":826:842   */\n      add\n        /* \"#utility.yul\":791:856   */\n      tag_87\n      jump\t// in\n    tag_121:\n        /* \"#utility.yul\":881:910   */\n      tag_122\n        /* \"#utility.yul\":903:909   */\n      dup2\n        /* \"#utility.yul\":881:910   */\n      tag_88\n      jump\t// in\n    tag_122:\n        /* \"#utility.yul\":876:879   */\n      dup5\n        /* \"#utility.yul\":872:911   */\n      add\n        /* \"#utility.yul\":865:911   */\n      swap2\n      pop\n        /* \"#utility.yul\":632:917   */\n      pop\n        /* \"#utility.yul\":540:917   */\n      swap3\n      swap2\n      pop\n      pop\n      jump\t// out\n        /* \"#utility.yul\":923:1236   */\n    tag_17:\n        /* \"#utility.yul\":1036:1040   */\n      0x00\n        /* \"#utility.yul\":1074:1076   */\n      0x20\n        /* \"#utility.yul\":1063:1072   */\n      dup3\n        /* \"#utility.yul\":1059:1077   */\n      add\n        /* \"#utility.yul\":1051:1077   */\n      swap1\n      pop\n        /* \"#utility.yul\":1123:1132   */\n      dup2\n        /* \"#utility.yul\":1117:1121   */\n      dup2\n        /* \"#utility.yul\":1113:1133   */\n      sub\n        /* \"#utility.yul\":1109:1110   */\n      0x00\n        /* \"#utility.yul\":1098:1107   */\n      dup4\n        /* \"#utility.yul\":1094:1111   */\n      add\n        /* \"#utility.yul\":1087:1134   */\n      mstore\n        /* \"#utility.yul\":1151:1229   */\n      tag_124\n        /* \"#utility.yul\":1224:1228   */\n      dup2\n        /* \"#utility.yul\":1215:1221   */\n      dup5\n        /* \"#utility.yul\":1151:1229   */\n      tag_89\n      jump\t// in\n    tag_124:\n        /* \"#utility.yul\":1143:1229   */\n      swap1\n      pop\n        /* \"#utility.yul\":923:1236   */\n      swap3\n      swap2\n      pop\n      pop\n      jump\t// out\n        /* \"#utility.yul\":1323:1440   */\n    tag_91:\n        /* \"#utility.yul\":1432:1433   */\n      0x00\n        /* \"#utility.yul\":1429:1430   */\n      dup1\n        /* \"#utility.yul\":1422:1434   */\n      revert\n        /* \"#utility.yul\":1569:1695   */\n    tag_93:\n        /* \"#utility.yul\":1606:1613   */\n      0x00\n        /* \"#utility.yul\":1646:1688   */\n      0xffffffffffffffffffffffffffffffffffffffff\n        /* \"#utility.yul\":1639:1644   */\n      dup3\n        /* \"#utility.yul\":1635:1689   */\n      and\n        /* \"#utility.yul\":1624:1689   */\n      swap1\n      pop\n        /* \"#utility.yul\":1569:1695   */\n      swap2\n      swap1\n      pop\n      jump\t// out\n        /* \"#utility.yul\":1701:1797   */\n    tag_94:\n        /* \"#utility.yul\":1738:1745   */\n      0x00\n        /* \"#utility.yul\":1767:1791   */\n      tag_130\n        /* \"#utility.yul\":1785:1790   */\n      dup3\n        /* \"#utility.yul\":1767:1791   */\n      tag_93\n      jump\t// in\n    tag_130:\n        /* \"#utility.yul\":1756:1791   */\n      swap1\n      pop\n        /* \"#utility.yul\":1701:1797   */\n      swap2\n      swap1\n      pop\n      jump\t// out\n        /* \"#utility.yul\":1803:1925   */\n    tag_95:\n        /* \"#utility.yul\":1876:1900   */\n      tag_132\n        /* \"#utility.yul\":1894:1899   */\n      dup2\n        /* \"#utility.yul\":1876:1900   */\n      tag_94\n      jump\t// in\n    tag_132:\n        /* \"#utility.yul\":1869:1874   */\n      dup2\n        /* \"#utility.yul\":1866:1901   */\n      eq\n        /* \"#utility.yul\":1856:1919   */\n      tag_133\n      jumpi\n        /* \"#utility.yul\":1915:1916   */\n      0x00\n        /* \"#utility.yul\":1912:1913   */\n      dup1\n        /* \"#utility.yul\":1905:1917   */\n      revert\n        /* \"#utility.yul\":1856:1919   */\n    tag_133:\n        /* \"#utility.yul\":1803:1925   */\n      pop\n      jump\t// out\n        /* \"#utility.yul\":1931:2070   */\n    tag_96:\n        /* \"#utility.yul\":1977:1982   */\n      0x00\n        /* \"#utility.yul\":2015:2021   */\n      dup2\n        /* \"#utility.yul\":2002:2022   */\n      calldataload\n        /* \"#utility.yul\":1993:2022   */\n      swap1\n      pop\n        /* \"#utility.yul\":2031:2064   */\n      tag_135\n        /* \"#utility.yul\":2058:2063   */\n      dup2\n        /* \"#utility.yul\":2031:2064   */\n      tag_95\n      jump\t// in\n    tag_135:\n        /* \"#utility.yul\":1931:2070   */\n      swap3\n      swap2\n      pop\n      pop\n      jump\t// out\n        /* \"#utility.yul\":2076:2153   */\n    tag_97:\n        /* \"#utility.yul\":2113:2120   */\n      0x00\n        /* \"#utility.yul\":2142:2147   */\n      dup2\n        /* \"#utility.yul\":2131:2147   */\n      swap1\n      pop\n        /* \"#utility.yul\":2076:2153   */\n      swap2\n      swap1\n      pop\n      jump\t// out\n        /* \"#utility.yul\":2159:2281   */\n    tag_98:\n        /* \"#utility.yul\":2232:2256   */\n      tag_138\n        /* \"#utility.yul\":2250:2255   */\n      dup2\n        /* \"#utility.yul\":2232:2256   */\n      tag_97\n      jump\t// in\n    tag_138:\n        /* \"#utility.yul\":2225:2230   */\n      dup2\n        /* \"#utility.yul\":2222:2257   */\n      eq\n        /* \"#utility.yul\":2212:2275   */\n      tag_139\n      jumpi\n        /* \"#utility.yul\":2271:2272   */\n      0x00\n        /* \"#utility.yul\":2268:2269   */\n      dup1\n        /* \"#utility.yul\":2261:2273   */\n      revert\n        /* \"#utility.yul\":2212:2275   */\n    tag_139:\n        /* \"#utility.yul\":2159:2281   */\n      pop\n      jump\t// out\n        /* \"#utility.yul\":2287:2426   */\n    tag_99:\n        /* \"#utility.yul\":2333:2338   */\n      0x00\n        /* \"#utility.yul\":2371:2377   */\n      dup2\n        /* \"#utility.yul\":2358:2378   */\n      calldataload\n        /* \"#utility.yul\":2349:2378   */\n      swap1\n      pop\n        /* \"#utility.yul\":2387:2420   */\n      tag_141\n        /* \"#utility.yul\":2414:2419   */\n      dup2\n        /* \"#utility.yul\":2387:2420   */\n      tag_98\n      jump\t// in\n    tag_141:\n        /* \"#utility.yul\":2287:2426   */\n      swap3\n      swap2\n      pop\n      pop\n      jump\t// out\n        /* \"#utility.yul\":2432:2906   */\n    tag_20:\n        /* \"#utility.yul\":2500:2506   */\n      0x00\n        /* \"#utility.yul\":2508:2514   */\n      dup1\n        /* \"#utility.yul\":2557:2559   */\n      0x40\n        /* \"#utility.yul\":2545:2554   */\n      dup4\n        /* \"#utility.yul\":2536:2543   */\n      dup6\n        /* \"#utility.yul\":2532:2555   */\n      sub\n        /* \"#utility.yul\":2528:2560   */\n      slt\n        /* \"#utility.yul\":2525:2644   */\n      iszero\n      tag_143\n      jumpi\n        /* \"#utility.yul\":2563:2642   */\n      tag_144\n      tag_91\n      jump\t// in\n    tag_144:\n        /* \"#utility.yul\":2525:2644   */\n    tag_143:\n        /* \"#utility.yul\":2683:2684   */\n      0x00\n        /* \"#utility.yul\":2708:2761   */\n      tag_145\n        /* \"#utility.yul\":2753:2760   */\n      dup6\n        /* \"#utility.yul\":2744:2750   */\n      dup3\n        /* \"#utility.yul\":2733:2742   */\n      dup7\n        /* \"#utility.yul\":2729:2751   */\n      add\n        /* \"#utility.yul\":2708:2761   */\n      tag_96\n      jump\t// in\n    tag_145:\n        /* \"#utility.yul\":2698:2761   */\n      swap3\n      pop\n        /* \"#utility.yul\":2654:2771   */\n      pop\n        /* \"#utility.yul\":2810:2812   */\n      0x20\n        /* \"#utility.yul\":2836:2889   */\n      tag_146\n        /* \"#utility.yul\":2881:2888   */\n      dup6\n        /* \"#utility.yul\":2872:2878   */\n      dup3\n        /* \"#utility.yul\":2861:2870   */\n      dup7\n        /* \"#utility.yul\":2857:2879   */\n      add\n        /* \"#utility.yul\":2836:2889   */\n      tag_99\n      jump\t// in\n    tag_146:\n        /* \"#utility.yul\":2826:2889   */\n      swap2\n      pop\n        /* \"#utility.yul\":2781:2899   */\n      pop\n        /* \"#utility.yul\":2432:2906   */\n      swap3\n      pop\n      swap3\n      swap1\n      pop\n      jump\t// out\n        /* \"#utility.yul\":2912:3002   */\n    tag_100:\n        /* \"#utility.yul\":2946:2953   */\n      0x00\n        /* \"#utility.yul\":2989:2994   */\n      dup2\n        /* \"#utility.yul\":2982:2995   */\n      iszero\n        /* \"#utility.yul\":2975:2996   */\n      iszero\n        /* \"#utility.yul\":2964:2996   */\n      swap1\n      pop\n        /* \"#utility.yul\":2912:3002   */\n      swap2\n      swap1\n      pop\n      jump\t// out\n        /* \"#utility.yul\":3008:3117   */\n    tag_101:\n        /* \"#utility.yul\":3089:3110   */\n      tag_149\n        /* \"#utility.yul\":3104:3109   */\n      dup2\n        /* \"#utility.yul\":3089:3110   */\n      tag_100\n      jump\t// in\n    tag_149:\n        /* \"#utility.yul\":3084:3087   */\n      dup3\n        /* \"#utility.yul\":3077:3111   */\n      mstore\n        /* \"#utility.yul\":3008:3117   */\n      pop\n      pop\n      jump\t// out\n        /* \"#utility.yul\":3123:3333   */\n    tag_23:\n        /* \"#utility.yul\":3210:3214   */\n      0x00\n        /* \"#utility.yul\":3248:3250   */\n      0x20\n        /* \"#utility.yul\":3237:3246   */\n      dup3\n        /* \"#utility.yul\":3233:3251   */\n      add\n        /* \"#utility.yul\":3225:3251   */\n      swap1\n      pop\n        /* \"#utility.yul\":3261:3326   */\n      tag_151\n        /* \"#utility.yul\":3323:3324   */\n      0x00\n        /* \"#utility.yul\":3312:3321   */\n      dup4\n        /* \"#utility.yul\":3308:3325   */\n      add\n        /* \"#utility.yul\":3299:3305   */\n      dup5\n        /* \"#utility.yul\":3261:3326   */\n      tag_101\n      jump\t// in\n    tag_151:\n        /* \"#utility.yul\":3123:3333   */\n      swap3\n      swap2\n      pop\n      pop\n      jump\t// out\n        /* \"#utility.yul\":3339:3457   */\n    tag_102:\n        /* \"#utility.yul\":3426:3450   */\n      tag_153\n        /* \"#utility.yul\":3444:3449   */\n      dup2\n        /* \"#utility.yul\":3426:3450   */\n      tag_97\n      jump\t// in\n    tag_153:\n        /* \"#utility.yul\":3421:3424   */\n      dup3\n        /* \"#utility.yul\":3414:3451   */\n      mstore\n        /* \"#utility.yul\":3339:3457   */\n      pop\n      pop\n      jump\t// out\n        /* \"#utility.yul\":3463:3685   */\n    tag_27:\n        /* \"#utility.yul\":3556:3560   */\n      0x00\n        /* \"#utility.yul\":3594:3596   */\n      0x20\n        /* \"#utility.yul\":3583:3592   */\n      dup3\n        /* \"#utility.yul\":3579:3597   */\n      add\n        /* \"#utility.yul\":3571:3597   */\n      swap1\n      pop\n        /* \"#utility.yul\":3607:3678   */\n      tag_155\n        /* \"#utility.yul\":3675:3676   */\n      0x00\n        /* \"#utility.yul\":3664:3673   */\n      dup4\n        /* \"#utility.yul\":3660:3677   */\n      add\n        /* \"#utility.yul\":3651:3657   */\n      dup5\n        /* \"#utility.yul\":3607:3678   */\n      tag_102\n      jump\t// in\n    tag_155:\n        /* \"#utility.yul\":3463:3685   */\n      swap3\n      swap2\n      pop\n      pop\n      jump\t// out\n        /* \"#utility.yul\":3691:4310   */\n    tag_30:\n        /* \"#utility.yul\":3768:3774   */\n      0x00\n        /* \"#utility.yul\":3776:3782   */\n      dup1\n        /* \"#utility.yul\":3784:3790   */\n      0x00\n        /* \"#utility.yul\":3833:3835   */\n      0x60\n        /* \"#utility.yul\":3821:3830   */\n      dup5\n        /* \"#utility.yul\":3812:3819   */\n      dup7\n        /* \"#utility.yul\":3808:3831   */\n      sub\n        /* \"#utility.yul\":3804:3836   */\n      slt\n        /* \"#utility.yul\":3801:3920   */\n      iszero\n      tag_157\n      jumpi\n        /* \"#utility.yul\":3839:3918   */\n      tag_158\n      tag_91\n      jump\t// in\n    tag_158:\n        /* \"#utility.yul\":3801:3920   */\n    tag_157:\n        /* \"#utility.yul\":3959:3960   */\n      0x00\n        /* \"#utility.yul\":3984:4037   */\n      tag_159\n        /* \"#utility.yul\":4029:4036   */\n      dup7\n        /* \"#utility.yul\":4020:4026   */\n      dup3\n        /* \"#utility.yul\":4009:4018   */\n      dup8\n        /* \"#utility.yul\":4005:4027   */\n      add\n        /* \"#utility.yul\":3984:4037   */\n      tag_96\n      jump\t// in\n    tag_159:\n        /* \"#utility.yul\":3974:4037   */\n      swap4\n      pop\n        /* \"#utility.yul\":3930:4047   */\n      pop\n        /* \"#utility.yul\":4086:4088   */\n      0x20\n        /* \"#utility.yul\":4112:4165   */\n      tag_160\n        /* \"#utility.yul\":4157:4164   */\n      dup7\n        /* \"#utility.yul\":4148:4154   */\n      dup3\n        /* \"#utility.yul\":4137:4146   */\n      dup8\n        /* \"#utility.yul\":4133:4155   */\n      add\n        /* \"#utility.yul\":4112:4165   */\n      tag_96\n      jump\t// in\n    tag_160:\n        /* \"#utility.yul\":4102:4165   */\n      swap3\n      pop\n        /* \"#utility.yul\":4057:4175   */\n      pop\n        /* \"#utility.yul\":4214:4216   */\n      0x40\n        /* \"#utility.yul\":4240:4293   */\n      tag_161\n        /* \"#utility.yul\":4285:4292   */\n      dup7\n        /* \"#utility.yul\":4276:4282   */\n      dup3\n        /* \"#utility.yul\":4265:4274   */\n      dup8\n        /* \"#utility.yul\":4261:4283   */\n      add\n        /* \"#utility.yul\":4240:4293   */\n      tag_99\n      jump\t// in\n    tag_161:\n        /* \"#utility.yul\":4230:4293   */\n      swap2\n      pop\n        /* \"#utility.yul\":4185:4303   */\n      pop\n        /* \"#utility.yul\":3691:4310   */\n      swap3\n      pop\n      swap3\n      pop\n      swap3\n      jump\t// out\n        /* \"#utility.yul\":4316:4402   */\n    tag_103:\n        /* \"#utility.yul\":4351:4358   */\n      0x00\n        /* \"#utility.yul\":4391:4395   */\n      0xff\n        /* \"#utility.yul\":4384:4389   */\n      dup3\n        /* \"#utility.yul\":4380:4396   */\n      and\n        /* \"#utility.yul\":4369:4396   */\n      swap1\n      pop\n        /* \"#utility.yul\":4316:4402   */\n      swap2\n      swap1\n      pop\n      jump\t// out\n        /* \"#utility.yul\":4408:4520   */\n    tag_104:\n        /* \"#utility.yul\":4491:4513   */\n      tag_164\n        /* \"#utility.yul\":4507:4512   */\n      dup2\n        /* \"#utility.yul\":4491:4513   */\n      tag_103\n      jump\t// in\n    tag_164:\n        /* \"#utility.yul\":4486:4489   */\n      dup3\n        /* \"#utility.yul\":4479:4514   */\n      mstore\n        /* \"#utility.yul\":4408:4520   */\n      pop\n      pop\n      jump\t// out\n        /* \"#utility.yul\":4526:4740   */\n    tag_36:\n        /* \"#utility.yul\":4615:4619   */\n      0x00\n        /* \"#utility.yul\":4653:4655   */\n      0x20\n        /* \"#utility.yul\":4642:4651   */\n      dup3\n        /* \"#utility.yul\":4638:4656   */\n      add\n        /* \"#utility.yul\":4630:4656   */\n      swap1\n      pop\n        /* \"#utility.yul\":4666:4733   */\n      tag_166\n        /* \"#utility.yul\":4730:4731   */\n      0x00\n        /* \"#utility.yul\":4719:4728   */\n      dup4\n        /* \"#utility.yul\":4715:4732   */\n      add\n        /* \"#utility.yul\":4706:4712   */\n      dup5\n        /* \"#utility.yul\":4666:4733   */\n      tag_104\n      jump\t// in\n    tag_166:\n        /* \"#utility.yul\":4526:4740   */\n      swap3\n      swap2\n      pop\n      pop\n      jump\t// out\n        /* \"#utility.yul\":4746:5075   */\n    tag_39:\n        /* \"#utility.yul\":4805:4811   */\n      0x00\n        /* \"#utility.yul\":4854:4856   */\n      0x20\n        /* \"#utility.yul\":4842:4851   */\n      dup3\n        /* \"#utility.yul\":4833:4840   */\n      dup5\n        /* \"#utility.yul\":4829:4852   */\n      sub\n        /* \"#utility.yul\":4825:4857   */\n      slt\n        /* \"#utility.yul\":4822:4941   */\n      iszero\n      tag_168\n      jumpi\n        /* \"#utility.yul\":4860:4939   */\n      tag_169\n      tag_91\n      jump\t// in\n    tag_169:\n        /* \"#utility.yul\":4822:4941   */\n    tag_168:\n        /* \"#utility.yul\":4980:4981   */\n      0x00\n        /* \"#utility.yul\":5005:5058   */\n      tag_170\n        /* \"#utility.yul\":5050:5057   */\n      dup5\n        /* \"#utility.yul\":5041:5047   */\n      dup3\n        /* \"#utility.yul\":5030:5039   */\n      dup6\n        /* \"#utility.yul\":5026:5048   */\n      add\n        /* \"#utility.yul\":5005:5058   */\n      tag_96\n      jump\t// in\n    tag_170:\n        /* \"#utility.yul\":4995:5058   */\n      swap2\n      pop\n        /* \"#utility.yul\":4951:5068   */\n      pop\n        /* \"#utility.yul\":4746:5075   */\n      swap3\n      swap2\n      pop\n      pop\n      jump\t// out\n        /* \"#utility.yul\":5081:5555   */\n    tag_54:\n        /* \"#utility.yul\":5149:5155   */\n      0x00\n        /* \"#utility.yul\":5157:5163   */\n      dup1\n        /* \"#utility.yul\":5206:5208   */\n      0x40\n        /* \"#utility.yul\":5194:5203   */\n      dup4\n        /* \"#utility.yul\":5185:5192   */\n      dup6\n        /* \"#utility.yul\":5181:5204   */\n      sub\n        /* \"#utility.yul\":5177:5209   */\n      slt\n        /* \"#utility.yul\":5174:5293   */\n      iszero\n      tag_172\n      jumpi\n        /* \"#utility.yul\":5212:5291   */\n      tag_173\n      tag_91\n      jump\t// in\n    tag_173:\n        /* \"#utility.yul\":5174:5293   */\n    tag_172:\n        /* \"#utility.yul\":5332:5333   */\n      0x00\n        /* \"#utility.yul\":5357:5410   */\n      tag_174\n        /* \"#utility.yul\":5402:5409   */\n      dup6\n        /* \"#utility.yul\":5393:5399   */\n      dup3\n        /* \"#utility.yul\":5382:5391   */\n      dup7\n        /* \"#utility.yul\":5378:5400   */\n      add\n        /* \"#utility.yul\":5357:5410   */\n      tag_96\n      jump\t// in\n    tag_174:\n        /* \"#utility.yul\":5347:5410   */\n      swap3\n      pop\n        /* \"#utility.yul\":5303:5420   */\n      pop\n        /* \"#utility.yul\":5459:5461   */\n      0x20\n        /* \"#utility.yul\":5485:5538   */\n      tag_175\n        /* \"#utility.yul\":5530:5537   */\n      dup6\n        /* \"#utility.yul\":5521:5527   */\n      dup3\n        /* \"#utility.yul\":5510:5519   */\n      dup7\n        /* \"#utility.yul\":5506:5528   */\n      add\n        /* \"#utility.yul\":5485:5538   */\n      tag_96\n      jump\t// in\n    tag_175:\n        /* \"#utility.yul\":5475:5538   */\n      swap2\n      pop\n        /* \"#utility.yul\":5430:5548   */\n      pop\n        /* \"#utility.yul\":5081:5555   */\n      swap3\n      pop\n      swap3\n      swap1\n      pop\n      jump\t// out\n        /* \"#utility.yul\":5561:5784   */\n    tag_105:\n        /* \"#utility.yul\":5701:5735   */\n      0x53616c646f20696e737566696369656e7465206f75206e616f206175746f7269\n        /* \"#utility.yul\":5697:5698   */\n      0x00\n        /* \"#utility.yul\":5689:5695   */\n      dup3\n        /* \"#utility.yul\":5685:5699   */\n      add\n        /* \"#utility.yul\":5678:5736   */\n      mstore\n        /* \"#utility.yul\":5770:5776   */\n      0x7a61646f00000000000000000000000000000000000000000000000000000000\n        /* \"#utility.yul\":5765:5767   */\n      0x20\n        /* \"#utility.yul\":5757:5763   */\n      dup3\n        /* \"#utility.yul\":5753:5768   */\n      add\n        /* \"#utility.yul\":5746:5777   */\n      mstore\n        /* \"#utility.yul\":5561:5784   */\n      pop\n      jump\t// out\n        /* \"#utility.yul\":5790:6156   */\n    tag_106:\n        /* \"#utility.yul\":5932:5935   */\n      0x00\n        /* \"#utility.yul\":5953:6020   */\n      tag_178\n        /* \"#utility.yul\":6017:6019   */\n      0x24\n        /* \"#utility.yul\":6012:6015   */\n      dup4\n        /* \"#utility.yul\":5953:6020   */\n      tag_86\n      jump\t// in\n    tag_178:\n        /* \"#utility.yul\":5946:6020   */\n      swap2\n      pop\n        /* \"#utility.yul\":6029:6122   */\n      tag_179\n        /* \"#utility.yul\":6118:6121   */\n      dup3\n        /* \"#utility.yul\":6029:6122   */\n      tag_105\n      jump\t// in\n    tag_179:\n        /* \"#utility.yul\":6147:6149   */\n      0x40\n        /* \"#utility.yul\":6142:6145   */\n      dup3\n        /* \"#utility.yul\":6138:6150   */\n      add\n        /* \"#utility.yul\":6131:6150   */\n      swap1\n      pop\n        /* \"#utility.yul\":5790:6156   */\n      swap2\n      swap1\n      pop\n      jump\t// out\n        /* \"#utility.yul\":6162:6581   */\n    tag_64:\n        /* \"#utility.yul\":6328:6332   */\n      0x00\n        /* \"#utility.yul\":6366:6368   */\n      0x20\n        /* \"#utility.yul\":6355:6364   */\n      dup3\n        /* \"#utility.yul\":6351:6369   */\n      add\n        /* \"#utility.yul\":6343:6369   */\n      swap1\n      pop\n        /* \"#utility.yul\":6415:6424   */\n      dup2\n        /* \"#utility.yul\":6409:6413   */\n      dup2\n        /* \"#utility.yul\":6405:6425   */\n      sub\n        /* \"#utility.yul\":6401:6402   */\n      0x00\n        /* \"#utility.yul\":6390:6399   */\n      dup4\n        /* \"#utility.yul\":6386:6403   */\n      add\n        /* \"#utility.yul\":6379:6426   */\n      mstore\n        /* \"#utility.yul\":6443:6574   */\n      tag_181\n        /* \"#utility.yul\":6569:6573   */\n      dup2\n        /* \"#utility.yul\":6443:6574   */\n      tag_106\n      jump\t// in\n    tag_181:\n        /* \"#utility.yul\":6435:6574   */\n      swap1\n      pop\n        /* \"#utility.yul\":6162:6581   */\n      swap2\n      swap1\n      pop\n      jump\t// out\n        /* \"#utility.yul\":6587:6767   */\n    tag_107:\n        /* \"#utility.yul\":6635:6712   */\n      0x4e487b7100000000000000000000000000000000000000000000000000000000\n        /* \"#utility.yul\":6632:6633   */\n      0x00\n        /* \"#utility.yul\":6625:6713   */\n      mstore\n        /* \"#utility.yul\":6732:6736   */\n      0x11\n        /* \"#utility.yul\":6729:6730   */\n      0x04\n        /* \"#utility.yul\":6722:6737   */\n      mstore\n        /* \"#utility.yul\":6756:6760   */\n      0x24\n        /* \"#utility.yul\":6753:6754   */\n      0x00\n        /* \"#utility.yul\":6746:6761   */\n      revert\n        /* \"#utility.yul\":6773:6967   */\n    tag_66:\n        /* \"#utility.yul\":6813:6817   */\n      0x00\n        /* \"#utility.yul\":6833:6853   */\n      tag_184\n        /* \"#utility.yul\":6851:6852   */\n      dup3\n        /* \"#utility.yul\":6833:6853   */\n      tag_97\n      jump\t// in\n    tag_184:\n        /* \"#utility.yul\":6828:6853   */\n      swap2\n      pop\n        /* \"#utility.yul\":6867:6887   */\n      tag_185\n        /* \"#utility.yul\":6885:6886   */\n      dup4\n        /* \"#utility.yul\":6867:6887   */\n      tag_97\n      jump\t// in\n    tag_185:\n        /* \"#utility.yul\":6862:6887   */\n      swap3\n      pop\n        /* \"#utility.yul\":6911:6912   */\n      dup3\n        /* \"#utility.yul\":6908:6909   */\n      dup3\n        /* \"#utility.yul\":6904:6913   */\n      sub\n        /* \"#utility.yul\":6896:6913   */\n      swap1\n      pop\n        /* \"#utility.yul\":6935:6936   */\n      dup2\n        /* \"#utility.yul\":6929:6933   */\n      dup2\n        /* \"#utility.yul\":6926:6937   */\n      gt\n        /* \"#utility.yul\":6923:6960   */\n      iszero\n      tag_186\n      jumpi\n        /* \"#utility.yul\":6940:6958   */\n      tag_187\n      tag_107\n      jump\t// in\n    tag_187:\n        /* \"#utility.yul\":6923:6960   */\n    tag_186:\n        /* \"#utility.yul\":6773:6967   */\n      swap3\n      swap2\n      pop\n      pop\n      jump\t// out\n        /* \"#utility.yul\":6973:7164   */\n    tag_68:\n        /* \"#utility.yul\":7013:7016   */\n      0x00\n        /* \"#utility.yul\":7032:7052   */\n      tag_189\n        /* \"#utility.yul\":7050:7051   */\n      dup3\n        /* \"#utility.yul\":7032:7052   */\n      tag_97\n      jump\t// in\n    tag_189:\n        /* \"#utility.yul\":7027:7052   */\n      swap2\n      pop\n        /* \"#utility.yul\":7066:7086   */\n      tag_190\n        /* \"#utility.yul\":7084:7085   */\n      dup4\n        /* \"#utility.yul\":7066:7086   */\n      tag_97\n      jump\t// in\n    tag_190:\n        /* \"#utility.yul\":7061:7086   */\n      swap3\n      pop\n        /* \"#utility.yul\":7109:7110   */\n      dup3\n        /* \"#utility.yul\":7106:7107   */\n      dup3\n        /* \"#utility.yul\":7102:7111   */\n      add\n        /* \"#utility.yul\":7095:7111   */\n      swap1\n      pop\n        /* \"#utility.yul\":7130:7133   */\n      dup1\n        /* \"#utility.yul\":7127:7128   */\n      dup3\n        /* \"#utility.yul\":7124:7134   */\n      gt\n        /* \"#utility.yul\":7121:7157   */\n      iszero\n      tag_191\n      jumpi\n        /* \"#utility.yul\":7137:7155   */\n      tag_192\n      tag_107\n      jump\t// in\n    tag_192:\n        /* \"#utility.yul\":7121:7157   */\n    tag_191:\n        /* \"#utility.yul\":6973:7164   */\n      swap3\n      swap2\n      pop\n      pop\n      jump\t// out\n        /* \"#utility.yul\":7170:7338   */\n    tag_108:\n        /* \"#utility.yul\":7310:7330   */\n      0x53616c646f20696e737566696369656e74650000000000000000000000000000\n        /* \"#utility.yul\":7306:7307   */\n      0x00\n        /* \"#utility.yul\":7298:7304   */\n      dup3\n        /* \"#utility.yul\":7294:7308   */\n      add\n        /* \"#utility.yul\":7287:7331   */\n      mstore\n        /* \"#utility.yul\":7170:7338   */\n      pop\n      jump\t// out\n        /* \"#utility.yul\":7344:7710   */\n    tag_109:\n        /* \"#utility.yul\":7486:7489   */\n      0x00\n        /* \"#utility.yul\":7507:7574   */\n      tag_195\n        /* \"#utility.yul\":7571:7573   */\n      0x12\n        /* \"#utility.yul\":7566:7569   */\n      dup4\n        /* \"#utility.yul\":7507:7574   */\n      tag_86\n      jump\t// in\n    tag_195:\n        /* \"#utility.yul\":7500:7574   */\n      swap2\n      pop\n        /* \"#utility.yul\":7583:7676   */\n      tag_196\n        /* \"#utility.yul\":7672:7675   */\n      dup3\n        /* \"#utility.yul\":7583:7676   */\n      tag_108\n      jump\t// in\n    tag_196:\n        /* \"#utility.yul\":7701:7703   */\n      0x20\n        /* \"#utility.yul\":7696:7699   */\n      dup3\n        /* \"#utility.yul\":7692:7704   */\n      add\n        /* \"#utility.yul\":7685:7704   */\n      swap1\n      pop\n        /* \"#utility.yul\":7344:7710   */\n      swap2\n      swap1\n      pop\n      jump\t// out\n        /* \"#utility.yul\":7716:8135   */\n    tag_76:\n        /* \"#utility.yul\":7882:7886   */\n      0x00\n        /* \"#utility.yul\":7920:7922   */\n      0x20\n        /* \"#utility.yul\":7909:7918   */\n      dup3\n        /* \"#utility.yul\":7905:7923   */\n      add\n        /* \"#utility.yul\":7897:7923   */\n      swap1\n      pop\n        /* \"#utility.yul\":7969:7978   */\n      dup2\n        /* \"#utility.yul\":7963:7967   */\n      dup2\n        /* \"#utility.yul\":7959:7979   */\n      sub\n        /* \"#utility.yul\":7955:7956   */\n      0x00\n        /* \"#utility.yul\":7944:7953   */\n      dup4\n        /* \"#utility.yul\":7940:7957   */\n      add\n        /* \"#utility.yul\":7933:7980   */\n      mstore\n        /* \"#utility.yul\":7997:8128   */\n      tag_198\n        /* \"#utility.yul\":8123:8127   */\n      dup2\n        /* \"#utility.yul\":7997:8128   */\n      tag_109\n      jump\t// in\n    tag_198:\n        /* \"#utility.yul\":7989:8128   */\n      swap1\n      pop\n        /* \"#utility.yul\":7716:8135   */\n      swap2\n      swap1\n      pop\n      jump\t// out\n        /* \"#utility.yul\":8141:8243   */\n    tag_110:\n        /* \"#utility.yul\":8183:8191   */\n      0x00\n        /* \"#utility.yul\":8230:8235   */\n      dup2\n        /* \"#utility.yul\":8227:8228   */\n      0x01\n        /* \"#utility.yul\":8223:8236   */\n      shr\n        /* \"#utility.yul\":8202:8236   */\n      swap1\n      pop\n        /* \"#utility.yul\":8141:8243   */\n      swap2\n      swap1\n      pop\n      jump\t// out\n        /* \"#utility.yul\":8249:9097   */\n    tag_111:\n        /* \"#utility.yul\":8310:8315   */\n      0x00\n        /* \"#utility.yul\":8317:8321   */\n      dup1\n        /* \"#utility.yul\":8341:8347   */\n      dup3\n        /* \"#utility.yul\":8332:8347   */\n      swap2\n      pop\n        /* \"#utility.yul\":8365:8370   */\n      dup4\n        /* \"#utility.yul\":8356:8370   */\n      swap1\n      pop\n        /* \"#utility.yul\":8379:9091   */\n    tag_201:\n        /* \"#utility.yul\":8400:8401   */\n      0x01\n        /* \"#utility.yul\":8390:8398   */\n      dup6\n        /* \"#utility.yul\":8387:8402   */\n      gt\n        /* \"#utility.yul\":8379:9091   */\n      iszero\n      tag_203\n      jumpi\n        /* \"#utility.yul\":8495:8499   */\n      dup1\n        /* \"#utility.yul\":8490:8493   */\n      dup7\n        /* \"#utility.yul\":8486:8500   */\n      div\n        /* \"#utility.yul\":8480:8484   */\n      dup2\n        /* \"#utility.yul\":8477:8501   */\n      gt\n        /* \"#utility.yul\":8474:8524   */\n      iszero\n      tag_204\n      jumpi\n        /* \"#utility.yul\":8504:8522   */\n      tag_205\n      tag_107\n      jump\t// in\n    tag_205:\n        /* \"#utility.yul\":8474:8524   */\n    tag_204:\n        /* \"#utility.yul\":8554:8555   */\n      0x01\n        /* \"#utility.yul\":8544:8552   */\n      dup6\n        /* \"#utility.yul\":8540:8556   */\n      and\n        /* \"#utility.yul\":8537:8988   */\n      iszero\n      tag_206\n      jumpi\n        /* \"#utility.yul\":8969:8973   */\n      dup1\n        /* \"#utility.yul\":8962:8967   */\n      dup3\n        /* \"#utility.yul\":8958:8974   */\n      mul\n        /* \"#utility.yul\":8949:8974   */\n      swap2\n      pop\n        /* \"#utility.yul\":8537:8988   */\n    tag_206:\n        /* \"#utility.yul\":9019:9023   */\n      dup1\n        /* \"#utility.yul\":9013:9017   */\n      dup2\n        /* \"#utility.yul\":9009:9024   */\n      mul\n        /* \"#utility.yul\":9001:9024   */\n      swap1\n      pop\n        /* \"#utility.yul\":9049:9081   */\n      tag_207\n        /* \"#utility.yul\":9072:9080   */\n      dup6\n        /* \"#utility.yul\":9049:9081   */\n      tag_110\n      jump\t// in\n    tag_207:\n        /* \"#utility.yul\":9037:9081   */\n      swap5\n      pop\n        /* \"#utility.yul\":8379:9091   */\n      jump(tag_201)\n    tag_203:\n        /* \"#utility.yul\":8249:9097   */\n      swap5\n      pop\n      swap5\n      swap3\n      pop\n      pop\n      pop\n      jump\t// out\n        /* \"#utility.yul\":9103:10176   */\n    tag_112:\n        /* \"#utility.yul\":9157:9162   */\n      0x00\n        /* \"#utility.yul\":9348:9356   */\n      dup3\n        /* \"#utility.yul\":9338:9378   */\n      tag_209\n      jumpi\n        /* \"#utility.yul\":9369:9370   */\n      0x01\n        /* \"#utility.yul\":9360:9370   */\n      swap1\n      pop\n        /* \"#utility.yul\":9371:9376   */\n      jump(tag_208)\n        /* \"#utility.yul\":9338:9378   */\n    tag_209:\n        /* \"#utility.yul\":9397:9401   */\n      dup2\n        /* \"#utility.yul\":9387:9423   */\n      tag_210\n      jumpi\n        /* \"#utility.yul\":9414:9415   */\n      0x00\n        /* \"#utility.yul\":9405:9415   */\n      swap1\n      pop\n        /* \"#utility.yul\":9416:9421   */\n      jump(tag_208)\n        /* \"#utility.yul\":9387:9423   */\n    tag_210:\n        /* \"#utility.yul\":9483:9487   */\n      dup2\n        /* \"#utility.yul\":9531:9532   */\n      0x01\n        /* \"#utility.yul\":9526:9553   */\n      dup2\n      eq\n      tag_212\n      jumpi\n        /* \"#utility.yul\":9567:9568   */\n      0x02\n        /* \"#utility.yul\":9562:9753   */\n      dup2\n      eq\n      tag_213\n      jumpi\n        /* \"#utility.yul\":9476:9753   */\n      jump(tag_211)\n        /* \"#utility.yul\":9526:9553   */\n    tag_212:\n        /* \"#utility.yul\":9544:9545   */\n      0x01\n        /* \"#utility.yul\":9535:9545   */\n      swap2\n      pop\n        /* \"#utility.yul\":9546:9551   */\n      pop\n      jump(tag_208)\n        /* \"#utility.yul\":9562:9753   */\n    tag_213:\n        /* \"#utility.yul\":9607:9610   */\n      0xff\n        /* \"#utility.yul\":9597:9605   */\n      dup5\n        /* \"#utility.yul\":9594:9611   */\n      gt\n        /* \"#utility.yul\":9591:9634   */\n      iszero\n      tag_214\n      jumpi\n        /* \"#utility.yul\":9614:9632   */\n      tag_215\n      tag_107\n      jump\t// in\n    tag_215:\n        /* \"#utility.yul\":9591:9634   */\n    tag_214:\n        /* \"#utility.yul\":9663:9671   */\n      dup4\n        /* \"#utility.yul\":9660:9661   */\n      0x02\n        /* \"#utility.yul\":9656:9672   */\n      exp\n        /* \"#utility.yul\":9647:9672   */\n      swap2\n      pop\n        /* \"#utility.yul\":9698:9701   */\n      dup5\n        /* \"#utility.yul\":9691:9696   */\n      dup3\n        /* \"#utility.yul\":9688:9702   */\n      gt\n        /* \"#utility.yul\":9685:9725   */\n      iszero\n      tag_216\n      jumpi\n        /* \"#utility.yul\":9705:9723   */\n      tag_217\n      tag_107\n      jump\t// in\n    tag_217:\n        /* \"#utility.yul\":9685:9725   */\n    tag_216:\n        /* \"#utility.yul\":9738:9743   */\n      pop\n      jump(tag_208)\n        /* \"#utility.yul\":9476:9753   */\n    tag_211:\n      pop\n        /* \"#utility.yul\":9862:9864   */\n      0x20\n        /* \"#utility.yul\":9852:9860   */\n      dup4\n        /* \"#utility.yul\":9849:9865   */\n      lt\n        /* \"#utility.yul\":9843:9846   */\n      0x0133\n        /* \"#utility.yul\":9837:9841   */\n      dup4\n        /* \"#utility.yul\":9834:9847   */\n      lt\n        /* \"#utility.yul\":9830:9866   */\n      and\n        /* \"#utility.yul\":9812:9814   */\n      0x4e\n        /* \"#utility.yul\":9802:9810   */\n      dup5\n        /* \"#utility.yul\":9799:9815   */\n      lt\n        /* \"#utility.yul\":9794:9796   */\n      0x0b\n        /* \"#utility.yul\":9788:9792   */\n      dup5\n        /* \"#utility.yul\":9785:9797   */\n      lt\n        /* \"#utility.yul\":9781:9816   */\n      and\n        /* \"#utility.yul\":9765:9876   */\n      or\n        /* \"#utility.yul\":9762:10008   */\n      iszero\n      tag_218\n      jumpi\n        /* \"#utility.yul\":9918:9926   */\n      dup3\n        /* \"#utility.yul\":9912:9916   */\n      dup3\n        /* \"#utility.yul\":9908:9927   */\n      exp\n        /* \"#utility.yul\":9899:9927   */\n      swap1\n      pop\n        /* \"#utility.yul\":9953:9956   */\n      dup4\n        /* \"#utility.yul\":9946:9951   */\n      dup2\n        /* \"#utility.yul\":9943:9957   */\n      gt\n        /* \"#utility.yul\":9940:9980   */\n      iszero\n      tag_219\n      jumpi\n        /* \"#utility.yul\":9960:9978   */\n      tag_220\n      tag_107\n      jump\t// in\n    tag_220:\n        /* \"#utility.yul\":9940:9980   */\n    tag_219:\n        /* \"#utility.yul\":9993:9998   */\n      jump(tag_208)\n        /* \"#utility.yul\":9762:10008   */\n    tag_218:\n        /* \"#utility.yul\":10033:10075   */\n      tag_221\n        /* \"#utility.yul\":10071:10074   */\n      dup5\n        /* \"#utility.yul\":10061:10069   */\n      dup5\n        /* \"#utility.yul\":10055:10059   */\n      dup5\n        /* \"#utility.yul\":10052:10053   */\n      0x01\n        /* \"#utility.yul\":10033:10075   */\n      tag_111\n      jump\t// in\n    tag_221:\n        /* \"#utility.yul\":10018:10075   */\n      swap3\n      pop\n      swap1\n      pop\n        /* \"#utility.yul\":10107:10111   */\n      dup2\n        /* \"#utility.yul\":10102:10105   */\n      dup5\n        /* \"#utility.yul\":10098:10112   */\n      div\n        /* \"#utility.yul\":10091:10096   */\n      dup2\n        /* \"#utility.yul\":10088:10113   */\n      gt\n        /* \"#utility.yul\":10085:10136   */\n      iszero\n      tag_222\n      jumpi\n        /* \"#utility.yul\":10116:10134   */\n      tag_223\n      tag_107\n      jump\t// in\n    tag_223:\n        /* \"#utility.yul\":10085:10136   */\n    tag_222:\n        /* \"#utility.yul\":10165:10169   */\n      dup2\n        /* \"#utility.yul\":10158:10163   */\n      dup2\n        /* \"#utility.yul\":10154:10170   */\n      mul\n        /* \"#utility.yul\":10145:10170   */\n      swap1\n      pop\n        /* \"#utility.yul\":9103:10176   */\n    tag_208:\n      swap4\n      swap3\n      pop\n      pop\n      pop\n      jump\t// out\n        /* \"#utility.yul\":10182:10467   */\n    tag_81:\n        /* \"#utility.yul\":10242:10247   */\n      0x00\n        /* \"#utility.yul\":10266:10289   */\n      tag_225\n        /* \"#utility.yul\":10284:10288   */\n      dup3\n        /* \"#utility.yul\":10266:10289   */\n      tag_97\n      jump\t// in\n    tag_225:\n        /* \"#utility.yul\":10258:10289   */\n      swap2\n      pop\n        /* \"#utility.yul\":10310:10337   */\n      tag_226\n        /* \"#utility.yul\":10328:10336   */\n      dup4\n        /* \"#utility.yul\":10310:10337   */\n      tag_97\n      jump\t// in\n    tag_226:\n        /* \"#utility.yul\":10298:10337   */\n      swap3\n      pop\n        /* \"#utility.yul\":10356:10460   */\n      tag_227\n        /* \"#utility.yul\":10393:10459   */\n      0xffffffffffffffffffffffffffffffffffffffffffffffffffffffffffffffff\n        /* \"#utility.yul\":10383:10391   */\n      dup5\n        /* \"#utility.yul\":10377:10381   */\n      dup5\n        /* \"#utility.yul\":10356:10460   */\n      tag_112\n      jump\t// in\n    tag_227:\n        /* \"#utility.yul\":10347:10460   */\n      swap1\n      pop\n        /* \"#utility.yul\":10182:10467   */\n      swap3\n      swap2\n      pop\n      pop\n      jump\t// out\n        /* \"#utility.yul\":10473:10883   */\n    tag_83:\n        /* \"#utility.yul\":10513:10520   */\n      0x00\n        /* \"#utility.yul\":10536:10556   */\n      tag_229\n        /* \"#utility.yul\":10554:10555   */\n      dup3\n        /* \"#utility.yul\":10536:10556   */\n      tag_97\n      jump\t// in\n    tag_229:\n        /* \"#utility.yul\":10531:10556   */\n      swap2\n      pop\n        /* \"#utility.yul\":10570:10590   */\n      tag_230\n        /* \"#utility.yul\":10588:10589   */\n      dup4\n        /* \"#utility.yul\":10570:10590   */\n      tag_97\n      jump\t// in\n    tag_230:\n        /* \"#utility.yul\":10565:10590   */\n      swap3\n      pop\n        /* \"#utility.yul\":10625:10626   */\n      dup3\n        /* \"#utility.yul\":10622:10623   */\n      dup3\n        /* \"#utility.yul\":10618:10627   */\n      mul\n        /* \"#utility.yul\":10647:10677   */\n      tag_231\n        /* \"#utility.yul\":10665:10676   */\n      dup2\n        /* \"#utility.yul\":10647:10677   */\n      tag_97\n      jump\t// in\n    tag_231:\n        /* \"#utility.yul\":10636:10677   */\n      swap2\n      pop\n        /* \"#utility.yul\":10826:10827   */\n      dup3\n        /* \"#utility.yul\":10817:10824   */\n      dup3\n        /* \"#utility.yul\":10813:10828   */\n      div\n        /* \"#utility.yul\":10810:10811   */\n      dup5\n        /* \"#utility.yul\":10807:10829   */\n      eq\n        /* \"#utility.yul\":10787:10788   */\n      dup4\n        /* \"#utility.yul\":10780:10789   */\n      iszero\n        /* \"#utility.yul\":10760:10843   */\n      or\n        /* \"#utility.yul\":10737:10876   */\n      tag_232\n      jumpi\n        /* \"#utility.yul\":10856:10874   */\n      tag_233\n      tag_107\n      jump\t// in\n    tag_233:\n        /* \"#utility.yul\":10737:10876   */\n    tag_232:\n        /* \"#utility.yul\":10521:10883   */\n      pop\n        /* \"#utility.yul\":10473:10883   */\n      swap3\n      swap2\n      pop\n      pop\n      jump\t// out\n\n    auxdata: 0xa2646970667358221220dee51d6078898fb2c3be797be7dae569599a67dc92bd57f90dbf8380134734c564736f6c634300081a0033\n}\n",
				"bytecode": {
					"linkReferences": {},
					"object": "608060405234801561000f575f80fd5b50601260ff16600a6100219190610249565b620f424061002f9190610293565b6002819055506002545f803373ffffffffffffffffffffffffffffffffffffffff1673ffffffffffffffffffffffffffffffffffffffff1681526020019081526020015f20819055503373ffffffffffffffffffffffffffffffffffffffff165f73ffffffffffffffffffffffffffffffffffffffff167fddf252ad1be2c89b69c2b068fc378daa952ba7f163c4a11628f55a4df523b3ef6002546040516100d791906102e3565b60405180910390a36102fc565b7f4e487b71000000000000000000000000000000000000000000000000000000005f52601160045260245ffd5b5f8160011c9050919050565b5f808291508390505b600185111561016657808604811115610142576101416100e4565b5b60018516156101515780820291505b808102905061015f85610111565b9450610126565b94509492505050565b5f8261017e5760019050610239565b8161018b575f9050610239565b81600181146101a157600281146101ab576101da565b6001915050610239565b60ff8411156101bd576101bc6100e4565b5b8360020a9150848211156101d4576101d36100e4565b5b50610239565b5060208310610133831016604e8410600b841016171561020f5782820a90508381111561020a576102096100e4565b5b610239565b61021c848484600161011d565b92509050818404811115610233576102326100e4565b5b81810290505b9392505050565b5f819050919050565b5f61025382610240565b915061025e83610240565b925061028b7fffffffffffffffffffffffffffffffffffffffffffffffffffffffffffffffff848461016f565b905092915050565b5f61029d82610240565b91506102a883610240565b92508282026102b681610240565b915082820484148315176102cd576102cc6100e4565b5b5092915050565b6102dd81610240565b82525050565b5f6020820190506102f65f8301846102d4565b92915050565b610f03806103095f395ff3fe608060405234801561000f575f80fd5b506004361061009c575f3560e01c806370a082311161006457806370a082311461015a57806395d89b411461018a578063a9059cbb146101a8578063c3b2d337146101d8578063dd62ed3e146101f65761009c565b806306fdde03146100a0578063095ea7b3146100be57806318160ddd146100ee57806323b872dd1461010c578063313ce5671461013c575b5f80fd5b6100a8610226565b6040516100b59190610953565b60405180910390f35b6100d860048036038101906100d39190610a04565b61025f565b6040516100e59190610a5c565b60405180910390f35b6100f661034c565b6040516101039190610a84565b60405180910390f35b61012660048036038101906101219190610a9d565b610355565b6040516101339190610a5c565b60405180910390f35b610144610629565b6040516101519190610b08565b60405180910390f35b610174600480360381019061016f9190610b21565b61062e565b6040516101819190610a84565b60405180910390f35b610192610673565b60405161019f9190610953565b60405180910390f35b6101c260048036038101906101bd9190610a04565b6106ac565b6040516101cf9190610a5c565b60405180910390f35b6101e061083f565b6040516101ed9190610a84565b60405180910390f35b610210600480360381019061020b9190610b4c565b610861565b60405161021d9190610a84565b60405180910390f35b6040518060400160405280600981526020017f5049505f546f6b656e000000000000000000000000000000000000000000000081525081565b5f8160015f3373ffffffffffffffffffffffffffffffffffffffff1673ffffffffffffffffffffffffffffffffffffffff1681526020019081526020015f205f8573ffffffffffffffffffffffffffffffffffffffff1673ffffffffffffffffffffffffffffffffffffffff1681526020019081526020015f20819055508273ffffffffffffffffffffffffffffffffffffffff163373ffffffffffffffffffffffffffffffffffffffff167f8c5be1e5ebec7d5bd14f71427d1e84f3dd0314c0f7b2291e5b200ac8c7c3b9258460405161033a9190610a84565b60405180910390a36001905092915050565b5f600254905090565b5f8060015f8673ffffffffffffffffffffffffffffffffffffffff1673ffffffffffffffffffffffffffffffffffffffff1681526020019081526020015f205f3373ffffffffffffffffffffffffffffffffffffffff1673ffffffffffffffffffffffffffffffffffffffff1681526020019081526020015f20549050825f808773ffffffffffffffffffffffffffffffffffffffff1673ffffffffffffffffffffffffffffffffffffffff1681526020019081526020015f20541015801561041e5750828110155b61045d576040517f08c379a000000000000000000000000000000000000000000000000000000000815260040161045490610bfa565b60405180910390fd5b825f808773ffffffffffffffffffffffffffffffffffffffff1673ffffffffffffffffffffffffffffffffffffffff1681526020019081526020015f205f8282546104a89190610c45565b92505081905550825f808673ffffffffffffffffffffffffffffffffffffffff1673ffffffffffffffffffffffffffffffffffffffff1681526020019081526020015f205f8282546104fa9190610c78565b925050819055507fffffffffffffffffffffffffffffffffffffffffffffffffffffffffffffffff8110156105b8578260015f8773ffffffffffffffffffffffffffffffffffffffff1673ffffffffffffffffffffffffffffffffffffffff1681526020019081526020015f205f3373ffffffffffffffffffffffffffffffffffffffff1673ffffffffffffffffffffffffffffffffffffffff1681526020019081526020015f205f8282546105b09190610c45565b925050819055505b8373ffffffffffffffffffffffffffffffffffffffff168573ffffffffffffffffffffffffffffffffffffffff167fddf252ad1be2c89b69c2b068fc378daa952ba7f163c4a11628f55a4df523b3ef856040516106159190610a84565b60405180910390a360019150509392505050565b601281565b5f805f8373ffffffffffffffffffffffffffffffffffffffff1673ffffffffffffffffffffffffffffffffffffffff1681526020019081526020015f20549050919050565b6040518060400160405280600381526020017f504950000000000000000000000000000000000000000000000000000000000081525081565b5f815f803373ffffffffffffffffffffffffffffffffffffffff1673ffffffffffffffffffffffffffffffffffffffff1681526020019081526020015f2054101561072c576040517f08c379a000000000000000000000000000000000000000000000000000000000815260040161072390610cf5565b60405180910390fd5b815f803373ffffffffffffffffffffffffffffffffffffffff1673ffffffffffffffffffffffffffffffffffffffff1681526020019081526020015f205f8282546107779190610c45565b92505081905550815f808573ffffffffffffffffffffffffffffffffffffffff1673ffffffffffffffffffffffffffffffffffffffff1681526020019081526020015f205f8282546107c99190610c78565b925050819055508273ffffffffffffffffffffffffffffffffffffffff163373ffffffffffffffffffffffffffffffffffffffff167fddf252ad1be2c89b69c2b068fc378daa952ba7f163c4a11628f55a4df523b3ef8460405161082d9190610a84565b60405180910390a36001905092915050565b601260ff16600a6108509190610e42565b620f424061085e9190610e8c565b81565b5f60015f8473ffffffffffffffffffffffffffffffffffffffff1673ffffffffffffffffffffffffffffffffffffffff1681526020019081526020015f205f8373ffffffffffffffffffffffffffffffffffffffff1673ffffffffffffffffffffffffffffffffffffffff1681526020019081526020015f2054905092915050565b5f81519050919050565b5f82825260208201905092915050565b8281835e5f83830152505050565b5f601f19601f8301169050919050565b5f610925826108e3565b61092f81856108ed565b935061093f8185602086016108fd565b6109488161090b565b840191505092915050565b5f6020820190508181035f83015261096b818461091b565b905092915050565b5f80fd5b5f73ffffffffffffffffffffffffffffffffffffffff82169050919050565b5f6109a082610977565b9050919050565b6109b081610996565b81146109ba575f80fd5b50565b5f813590506109cb816109a7565b92915050565b5f819050919050565b6109e3816109d1565b81146109ed575f80fd5b50565b5f813590506109fe816109da565b92915050565b5f8060408385031215610a1a57610a19610973565b5b5f610a27858286016109bd565b9250506020610a38858286016109f0565b9150509250929050565b5f8115159050919050565b610a5681610a42565b82525050565b5f602082019050610a6f5f830184610a4d565b92915050565b610a7e816109d1565b82525050565b5f602082019050610a975f830184610a75565b92915050565b5f805f60608486031215610ab457610ab3610973565b5b5f610ac1868287016109bd565b9350506020610ad2868287016109bd565b9250506040610ae3868287016109f0565b9150509250925092565b5f60ff82169050919050565b610b0281610aed565b82525050565b5f602082019050610b1b5f830184610af9565b92915050565b5f60208284031215610b3657610b35610973565b5b5f610b43848285016109bd565b91505092915050565b5f8060408385031215610b6257610b61610973565b5b5f610b6f858286016109bd565b9250506020610b80858286016109bd565b9150509250929050565b7f53616c646f20696e737566696369656e7465206f75206e616f206175746f72695f8201527f7a61646f00000000000000000000000000000000000000000000000000000000602082015250565b5f610be46024836108ed565b9150610bef82610b8a565b604082019050919050565b5f6020820190508181035f830152610c1181610bd8565b9050919050565b7f4e487b71000000000000000000000000000000000000000000000000000000005f52601160045260245ffd5b5f610c4f826109d1565b9150610c5a836109d1565b9250828203905081811115610c7257610c71610c18565b5b92915050565b5f610c82826109d1565b9150610c8d836109d1565b9250828201905080821115610ca557610ca4610c18565b5b92915050565b7f53616c646f20696e737566696369656e746500000000000000000000000000005f82015250565b5f610cdf6012836108ed565b9150610cea82610cab565b602082019050919050565b5f6020820190508181035f830152610d0c81610cd3565b9050919050565b5f8160011c9050919050565b5f808291508390505b6001851115610d6857808604811115610d4457610d43610c18565b5b6001851615610d535780820291505b8081029050610d6185610d13565b9450610d28565b94509492505050565b5f82610d805760019050610e3b565b81610d8d575f9050610e3b565b8160018114610da35760028114610dad57610ddc565b6001915050610e3b565b60ff841115610dbf57610dbe610c18565b5b8360020a915084821115610dd657610dd5610c18565b5b50610e3b565b5060208310610133831016604e8410600b8410161715610e115782820a905083811115610e0c57610e0b610c18565b5b610e3b565b610e1e8484846001610d1f565b92509050818404811115610e3557610e34610c18565b5b81810290505b9392505050565b5f610e4c826109d1565b9150610e57836109d1565b9250610e847fffffffffffffffffffffffffffffffffffffffffffffffffffffffffffffffff8484610d71565b905092915050565b5f610e96826109d1565b9150610ea1836109d1565b9250828202610eaf816109d1565b91508282048414831517610ec657610ec5610c18565b5b509291505056fea2646970667358221220dee51d6078898fb2c3be797be7dae569599a67dc92bd57f90dbf8380134734c564736f6c634300081a0033",
					"opcodes": "PUSH1 0x80 PUSH1 0x40 MSTORE CALLVALUE DUP1 ISZERO PUSH2 0xF JUMPI PUSH0 DUP1 REVERT JUMPDEST POP PUSH1 0x12 PUSH1 0xFF AND PUSH1 0xA PUSH2 0x21 SWAP2 SWAP1 PUSH2 0x249 JUMP JUMPDEST PUSH3 0xF4240 PUSH2 0x2F SWAP2 SWAP1 PUSH2 0x293 JUMP JUMPDEST PUSH1 0x2 DUP2 SWAP1 SSTORE POP PUSH1 0x2 SLOAD PUSH0 DUP1 CALLER PUSH20 0xFFFFFFFFFFFFFFFFFFFFFFFFFFFFFFFFFFFFFFFF AND PUSH20 0xFFFFFFFFFFFFFFFFFFFFFFFFFFFFFFFFFFFFFFFF AND DUP2 MSTORE PUSH1 0x20 ADD SWAP1 DUP2 MSTORE PUSH1 0x20 ADD PUSH0 KECCAK256 DUP2 SWAP1 SSTORE POP CALLER PUSH20 0xFFFFFFFFFFFFFFFFFFFFFFFFFFFFFFFFFFFFFFFF AND PUSH0 PUSH20 0xFFFFFFFFFFFFFFFFFFFFFFFFFFFFFFFFFFFFFFFF AND PUSH32 0xDDF252AD1BE2C89B69C2B068FC378DAA952BA7F163C4A11628F55A4DF523B3EF PUSH1 0x2 SLOAD PUSH1 0x40 MLOAD PUSH2 0xD7 SWAP2 SWAP1 PUSH2 0x2E3 JUMP JUMPDEST PUSH1 0x40 MLOAD DUP1 SWAP2 SUB SWAP1 LOG3 PUSH2 0x2FC JUMP JUMPDEST PUSH32 0x4E487B7100000000000000000000000000000000000000000000000000000000 PUSH0 MSTORE PUSH1 0x11 PUSH1 0x4 MSTORE PUSH1 0x24 PUSH0 REVERT JUMPDEST PUSH0 DUP2 PUSH1 0x1 SHR SWAP1 POP SWAP2 SWAP1 POP JUMP JUMPDEST PUSH0 DUP1 DUP3 SWAP2 POP DUP4 SWAP1 POP JUMPDEST PUSH1 0x1 DUP6 GT ISZERO PUSH2 0x166 JUMPI DUP1 DUP7 DIV DUP2 GT ISZERO PUSH2 0x142 JUMPI PUSH2 0x141 PUSH2 0xE4 JUMP JUMPDEST JUMPDEST PUSH1 0x1 DUP6 AND ISZERO PUSH2 0x151 JUMPI DUP1 DUP3 MUL SWAP2 POP JUMPDEST DUP1 DUP2 MUL SWAP1 POP PUSH2 0x15F DUP6 PUSH2 0x111 JUMP JUMPDEST SWAP5 POP PUSH2 0x126 JUMP JUMPDEST SWAP5 POP SWAP5 SWAP3 POP POP POP JUMP JUMPDEST PUSH0 DUP3 PUSH2 0x17E JUMPI PUSH1 0x1 SWAP1 POP PUSH2 0x239 JUMP JUMPDEST DUP2 PUSH2 0x18B JUMPI PUSH0 SWAP1 POP PUSH2 0x239 JUMP JUMPDEST DUP2 PUSH1 0x1 DUP2 EQ PUSH2 0x1A1 JUMPI PUSH1 0x2 DUP2 EQ PUSH2 0x1AB JUMPI PUSH2 0x1DA JUMP JUMPDEST PUSH1 0x1 SWAP2 POP POP PUSH2 0x239 JUMP JUMPDEST PUSH1 0xFF DUP5 GT ISZERO PUSH2 0x1BD JUMPI PUSH2 0x1BC PUSH2 0xE4 JUMP JUMPDEST JUMPDEST DUP4 PUSH1 0x2 EXP SWAP2 POP DUP5 DUP3 GT ISZERO PUSH2 0x1D4 JUMPI PUSH2 0x1D3 PUSH2 0xE4 JUMP JUMPDEST JUMPDEST POP PUSH2 0x239 JUMP JUMPDEST POP PUSH1 0x20 DUP4 LT PUSH2 0x133 DUP4 LT AND PUSH1 0x4E DUP5 LT PUSH1 0xB DUP5 LT AND OR ISZERO PUSH2 0x20F JUMPI DUP3 DUP3 EXP SWAP1 POP DUP4 DUP2 GT ISZERO PUSH2 0x20A JUMPI PUSH2 0x209 PUSH2 0xE4 JUMP JUMPDEST JUMPDEST PUSH2 0x239 JUMP JUMPDEST PUSH2 0x21C DUP5 DUP5 DUP5 PUSH1 0x1 PUSH2 0x11D JUMP JUMPDEST SWAP3 POP SWAP1 POP DUP2 DUP5 DIV DUP2 GT ISZERO PUSH2 0x233 JUMPI PUSH2 0x232 PUSH2 0xE4 JUMP JUMPDEST JUMPDEST DUP2 DUP2 MUL SWAP1 POP JUMPDEST SWAP4 SWAP3 POP POP POP JUMP JUMPDEST PUSH0 DUP2 SWAP1 POP SWAP2 SWAP1 POP JUMP JUMPDEST PUSH0 PUSH2 0x253 DUP3 PUSH2 0x240 JUMP JUMPDEST SWAP2 POP PUSH2 0x25E DUP4 PUSH2 0x240 JUMP JUMPDEST SWAP3 POP PUSH2 0x28B PUSH32 0xFFFFFFFFFFFFFFFFFFFFFFFFFFFFFFFFFFFFFFFFFFFFFFFFFFFFFFFFFFFFFFFF DUP5 DUP5 PUSH2 0x16F JUMP JUMPDEST SWAP1 POP SWAP3 SWAP2 POP POP JUMP JUMPDEST PUSH0 PUSH2 0x29D DUP3 PUSH2 0x240 JUMP JUMPDEST SWAP2 POP PUSH2 0x2A8 DUP4 PUSH2 0x240 JUMP JUMPDEST SWAP3 POP DUP3 DUP3 MUL PUSH2 0x2B6 DUP2 PUSH2 0x240 JUMP JUMPDEST SWAP2 POP DUP3 DUP3 DIV DUP5 EQ DUP4 ISZERO OR PUSH2 0x2CD JUMPI PUSH2 0x2CC PUSH2 0xE4 JUMP JUMPDEST JUMPDEST POP SWAP3 SWAP2 POP POP JUMP JUMPDEST PUSH2 0x2DD DUP2 PUSH2 0x240 JUMP JUMPDEST DUP3 MSTORE POP POP JUMP JUMPDEST PUSH0 PUSH1 0x20 DUP3 ADD SWAP1 POP PUSH2 0x2F6 PUSH0 DUP4 ADD DUP5 PUSH2 0x2D4 JUMP JUMPDEST SWAP3 SWAP2 POP POP JUMP JUMPDEST PUSH2 0xF03 DUP1 PUSH2 0x309 PUSH0 CODECOPY PUSH0 RETURN INVALID PUSH1 0x80 PUSH1 0x40 MSTORE CALLVALUE DUP1 ISZERO PUSH2 0xF JUMPI PUSH0 DUP1 REVERT JUMPDEST POP PUSH1 0x4 CALLDATASIZE LT PUSH2 0x9C JUMPI PUSH0 CALLDATALOAD PUSH1 0xE0 SHR DUP1 PUSH4 0x70A08231 GT PUSH2 0x64 JUMPI DUP1 PUSH4 0x70A08231 EQ PUSH2 0x15A JUMPI DUP1 PUSH4 0x95D89B41 EQ PUSH2 0x18A JUMPI DUP1 PUSH4 0xA9059CBB EQ PUSH2 0x1A8 JUMPI DUP1 PUSH4 0xC3B2D337 EQ PUSH2 0x1D8 JUMPI DUP1 PUSH4 0xDD62ED3E EQ PUSH2 0x1F6 JUMPI PUSH2 0x9C JUMP JUMPDEST DUP1 PUSH4 0x6FDDE03 EQ PUSH2 0xA0 JUMPI DUP1 PUSH4 0x95EA7B3 EQ PUSH2 0xBE JUMPI DUP1 PUSH4 0x18160DDD EQ PUSH2 0xEE JUMPI DUP1 PUSH4 0x23B872DD EQ PUSH2 0x10C JUMPI DUP1 PUSH4 0x313CE567 EQ PUSH2 0x13C JUMPI JUMPDEST PUSH0 DUP1 REVERT JUMPDEST PUSH2 0xA8 PUSH2 0x226 JUMP JUMPDEST PUSH1 0x40 MLOAD PUSH2 0xB5 SWAP2 SWAP1 PUSH2 0x953 JUMP JUMPDEST PUSH1 0x40 MLOAD DUP1 SWAP2 SUB SWAP1 RETURN JUMPDEST PUSH2 0xD8 PUSH1 0x4 DUP1 CALLDATASIZE SUB DUP2 ADD SWAP1 PUSH2 0xD3 SWAP2 SWAP1 PUSH2 0xA04 JUMP JUMPDEST PUSH2 0x25F JUMP JUMPDEST PUSH1 0x40 MLOAD PUSH2 0xE5 SWAP2 SWAP1 PUSH2 0xA5C JUMP JUMPDEST PUSH1 0x40 MLOAD DUP1 SWAP2 SUB SWAP1 RETURN JUMPDEST PUSH2 0xF6 PUSH2 0x34C JUMP JUMPDEST PUSH1 0x40 MLOAD PUSH2 0x103 SWAP2 SWAP1 PUSH2 0xA84 JUMP JUMPDEST PUSH1 0x40 MLOAD DUP1 SWAP2 SUB SWAP1 RETURN JUMPDEST PUSH2 0x126 PUSH1 0x4 DUP1 CALLDATASIZE SUB DUP2 ADD SWAP1 PUSH2 0x121 SWAP2 SWAP1 PUSH2 0xA9D JUMP JUMPDEST PUSH2 0x355 JUMP JUMPDEST PUSH1 0x40 MLOAD PUSH2 0x133 SWAP2 SWAP1 PUSH2 0xA5C JUMP JUMPDEST PUSH1 0x40 MLOAD DUP1 SWAP2 SUB SWAP1 RETURN JUMPDEST PUSH2 0x144 PUSH2 0x629 JUMP JUMPDEST PUSH1 0x40 MLOAD PUSH2 0x151 SWAP2 SWAP1 PUSH2 0xB08 JUMP JUMPDEST PUSH1 0x40 MLOAD DUP1 SWAP2 SUB SWAP1 RETURN JUMPDEST PUSH2 0x174 PUSH1 0x4 DUP1 CALLDATASIZE SUB DUP2 ADD SWAP1 PUSH2 0x16F SWAP2 SWAP1 PUSH2 0xB21 JUMP JUMPDEST PUSH2 0x62E JUMP JUMPDEST PUSH1 0x40 MLOAD PUSH2 0x181 SWAP2 SWAP1 PUSH2 0xA84 JUMP JUMPDEST PUSH1 0x40 MLOAD DUP1 SWAP2 SUB SWAP1 RETURN JUMPDEST PUSH2 0x192 PUSH2 0x673 JUMP JUMPDEST PUSH1 0x40 MLOAD PUSH2 0x19F SWAP2 SWAP1 PUSH2 0x953 JUMP JUMPDEST PUSH1 0x40 MLOAD DUP1 SWAP2 SUB SWAP1 RETURN JUMPDEST PUSH2 0x1C2 PUSH1 0x4 DUP1 CALLDATASIZE SUB DUP2 ADD SWAP1 PUSH2 0x1BD SWAP2 SWAP1 PUSH2 0xA04 JUMP JUMPDEST PUSH2 0x6AC JUMP JUMPDEST PUSH1 0x40 MLOAD PUSH2 0x1CF SWAP2 SWAP1 PUSH2 0xA5C JUMP JUMPDEST PUSH1 0x40 MLOAD DUP1 SWAP2 SUB SWAP1 RETURN JUMPDEST PUSH2 0x1E0 PUSH2 0x83F JUMP JUMPDEST PUSH1 0x40 MLOAD PUSH2 0x1ED SWAP2 SWAP1 PUSH2 0xA84 JUMP JUMPDEST PUSH1 0x40 MLOAD DUP1 SWAP2 SUB SWAP1 RETURN JUMPDEST PUSH2 0x210 PUSH1 0x4 DUP1 CALLDATASIZE SUB DUP2 ADD SWAP1 PUSH2 0x20B SWAP2 SWAP1 PUSH2 0xB4C JUMP JUMPDEST PUSH2 0x861 JUMP JUMPDEST PUSH1 0x40 MLOAD PUSH2 0x21D SWAP2 SWAP1 PUSH2 0xA84 JUMP JUMPDEST PUSH1 0x40 MLOAD DUP1 SWAP2 SUB SWAP1 RETURN JUMPDEST PUSH1 0x40 MLOAD DUP1 PUSH1 0x40 ADD PUSH1 0x40 MSTORE DUP1 PUSH1 0x9 DUP2 MSTORE PUSH1 0x20 ADD PUSH32 0x5049505F546F6B656E0000000000000000000000000000000000000000000000 DUP2 MSTORE POP DUP2 JUMP JUMPDEST PUSH0 DUP2 PUSH1 0x1 PUSH0 CALLER PUSH20 0xFFFFFFFFFFFFFFFFFFFFFFFFFFFFFFFFFFFFFFFF AND PUSH20 0xFFFFFFFFFFFFFFFFFFFFFFFFFFFFFFFFFFFFFFFF AND DUP2 MSTORE PUSH1 0x20 ADD SWAP1 DUP2 MSTORE PUSH1 0x20 ADD PUSH0 KECCAK256 PUSH0 DUP6 PUSH20 0xFFFFFFFFFFFFFFFFFFFFFFFFFFFFFFFFFFFFFFFF AND PUSH20 0xFFFFFFFFFFFFFFFFFFFFFFFFFFFFFFFFFFFFFFFF AND DUP2 MSTORE PUSH1 0x20 ADD SWAP1 DUP2 MSTORE PUSH1 0x20 ADD PUSH0 KECCAK256 DUP2 SWAP1 SSTORE POP DUP3 PUSH20 0xFFFFFFFFFFFFFFFFFFFFFFFFFFFFFFFFFFFFFFFF AND CALLER PUSH20 0xFFFFFFFFFFFFFFFFFFFFFFFFFFFFFFFFFFFFFFFF AND PUSH32 0x8C5BE1E5EBEC7D5BD14F71427D1E84F3DD0314C0F7B2291E5B200AC8C7C3B925 DUP5 PUSH1 0x40 MLOAD PUSH2 0x33A SWAP2 SWAP1 PUSH2 0xA84 JUMP JUMPDEST PUSH1 0x40 MLOAD DUP1 SWAP2 SUB SWAP1 LOG3 PUSH1 0x1 SWAP1 POP SWAP3 SWAP2 POP POP JUMP JUMPDEST PUSH0 PUSH1 0x2 SLOAD SWAP1 POP SWAP1 JUMP JUMPDEST PUSH0 DUP1 PUSH1 0x1 PUSH0 DUP7 PUSH20 0xFFFFFFFFFFFFFFFFFFFFFFFFFFFFFFFFFFFFFFFF AND PUSH20 0xFFFFFFFFFFFFFFFFFFFFFFFFFFFFFFFFFFFFFFFF AND DUP2 MSTORE PUSH1 0x20 ADD SWAP1 DUP2 MSTORE PUSH1 0x20 ADD PUSH0 KECCAK256 PUSH0 CALLER PUSH20 0xFFFFFFFFFFFFFFFFFFFFFFFFFFFFFFFFFFFFFFFF AND PUSH20 0xFFFFFFFFFFFFFFFFFFFFFFFFFFFFFFFFFFFFFFFF AND DUP2 MSTORE PUSH1 0x20 ADD SWAP1 DUP2 MSTORE PUSH1 0x20 ADD PUSH0 KECCAK256 SLOAD SWAP1 POP DUP3 PUSH0 DUP1 DUP8 PUSH20 0xFFFFFFFFFFFFFFFFFFFFFFFFFFFFFFFFFFFFFFFF AND PUSH20 0xFFFFFFFFFFFFFFFFFFFFFFFFFFFFFFFFFFFFFFFF AND DUP2 MSTORE PUSH1 0x20 ADD SWAP1 DUP2 MSTORE PUSH1 0x20 ADD PUSH0 KECCAK256 SLOAD LT ISZERO DUP1 ISZERO PUSH2 0x41E JUMPI POP DUP3 DUP2 LT ISZERO JUMPDEST PUSH2 0x45D JUMPI PUSH1 0x40 MLOAD PUSH32 0x8C379A000000000000000000000000000000000000000000000000000000000 DUP2 MSTORE PUSH1 0x4 ADD PUSH2 0x454 SWAP1 PUSH2 0xBFA JUMP JUMPDEST PUSH1 0x40 MLOAD DUP1 SWAP2 SUB SWAP1 REVERT JUMPDEST DUP3 PUSH0 DUP1 DUP8 PUSH20 0xFFFFFFFFFFFFFFFFFFFFFFFFFFFFFFFFFFFFFFFF AND PUSH20 0xFFFFFFFFFFFFFFFFFFFFFFFFFFFFFFFFFFFFFFFF AND DUP2 MSTORE PUSH1 0x20 ADD SWAP1 DUP2 MSTORE PUSH1 0x20 ADD PUSH0 KECCAK256 PUSH0 DUP3 DUP3 SLOAD PUSH2 0x4A8 SWAP2 SWAP1 PUSH2 0xC45 JUMP JUMPDEST SWAP3 POP POP DUP2 SWAP1 SSTORE POP DUP3 PUSH0 DUP1 DUP7 PUSH20 0xFFFFFFFFFFFFFFFFFFFFFFFFFFFFFFFFFFFFFFFF AND PUSH20 0xFFFFFFFFFFFFFFFFFFFFFFFFFFFFFFFFFFFFFFFF AND DUP2 MSTORE PUSH1 0x20 ADD SWAP1 DUP2 MSTORE PUSH1 0x20 ADD PUSH0 KECCAK256 PUSH0 DUP3 DUP3 SLOAD PUSH2 0x4FA SWAP2 SWAP1 PUSH2 0xC78 JUMP JUMPDEST SWAP3 POP POP DUP2 SWAP1 SSTORE POP PUSH32 0xFFFFFFFFFFFFFFFFFFFFFFFFFFFFFFFFFFFFFFFFFFFFFFFFFFFFFFFFFFFFFFFF DUP2 LT ISZERO PUSH2 0x5B8 JUMPI DUP3 PUSH1 0x1 PUSH0 DUP8 PUSH20 0xFFFFFFFFFFFFFFFFFFFFFFFFFFFFFFFFFFFFFFFF AND PUSH20 0xFFFFFFFFFFFFFFFFFFFFFFFFFFFFFFFFFFFFFFFF AND DUP2 MSTORE PUSH1 0x20 ADD SWAP1 DUP2 MSTORE PUSH1 0x20 ADD PUSH0 KECCAK256 PUSH0 CALLER PUSH20 0xFFFFFFFFFFFFFFFFFFFFFFFFFFFFFFFFFFFFFFFF AND PUSH20 0xFFFFFFFFFFFFFFFFFFFFFFFFFFFFFFFFFFFFFFFF AND DUP2 MSTORE PUSH1 0x20 ADD SWAP1 DUP2 MSTORE PUSH1 0x20 ADD PUSH0 KECCAK256 PUSH0 DUP3 DUP3 SLOAD PUSH2 0x5B0 SWAP2 SWAP1 PUSH2 0xC45 JUMP JUMPDEST SWAP3 POP POP DUP2 SWAP1 SSTORE POP JUMPDEST DUP4 PUSH20 0xFFFFFFFFFFFFFFFFFFFFFFFFFFFFFFFFFFFFFFFF AND DUP6 PUSH20 0xFFFFFFFFFFFFFFFFFFFFFFFFFFFFFFFFFFFFFFFF AND PUSH32 0xDDF252AD1BE2C89B69C2B068FC378DAA952BA7F163C4A11628F55A4DF523B3EF DUP6 PUSH1 0x40 MLOAD PUSH2 0x615 SWAP2 SWAP1 PUSH2 0xA84 JUMP JUMPDEST PUSH1 0x40 MLOAD DUP1 SWAP2 SUB SWAP1 LOG3 PUSH1 0x1 SWAP2 POP POP SWAP4 SWAP3 POP POP POP JUMP JUMPDEST PUSH1 0x12 DUP2 JUMP JUMPDEST PUSH0 DUP1 PUSH0 DUP4 PUSH20 0xFFFFFFFFFFFFFFFFFFFFFFFFFFFFFFFFFFFFFFFF AND PUSH20 0xFFFFFFFFFFFFFFFFFFFFFFFFFFFFFFFFFFFFFFFF AND DUP2 MSTORE PUSH1 0x20 ADD SWAP1 DUP2 MSTORE PUSH1 0x20 ADD PUSH0 KECCAK256 SLOAD SWAP1 POP SWAP2 SWAP1 POP JUMP JUMPDEST PUSH1 0x40 MLOAD DUP1 PUSH1 0x40 ADD PUSH1 0x40 MSTORE DUP1 PUSH1 0x3 DUP2 MSTORE PUSH1 0x20 ADD PUSH32 0x5049500000000000000000000000000000000000000000000000000000000000 DUP2 MSTORE POP DUP2 JUMP JUMPDEST PUSH0 DUP2 PUSH0 DUP1 CALLER PUSH20 0xFFFFFFFFFFFFFFFFFFFFFFFFFFFFFFFFFFFFFFFF AND PUSH20 0xFFFFFFFFFFFFFFFFFFFFFFFFFFFFFFFFFFFFFFFF AND DUP2 MSTORE PUSH1 0x20 ADD SWAP1 DUP2 MSTORE PUSH1 0x20 ADD PUSH0 KECCAK256 SLOAD LT ISZERO PUSH2 0x72C JUMPI PUSH1 0x40 MLOAD PUSH32 0x8C379A000000000000000000000000000000000000000000000000000000000 DUP2 MSTORE PUSH1 0x4 ADD PUSH2 0x723 SWAP1 PUSH2 0xCF5 JUMP JUMPDEST PUSH1 0x40 MLOAD DUP1 SWAP2 SUB SWAP1 REVERT JUMPDEST DUP2 PUSH0 DUP1 CALLER PUSH20 0xFFFFFFFFFFFFFFFFFFFFFFFFFFFFFFFFFFFFFFFF AND PUSH20 0xFFFFFFFFFFFFFFFFFFFFFFFFFFFFFFFFFFFFFFFF AND DUP2 MSTORE PUSH1 0x20 ADD SWAP1 DUP2 MSTORE PUSH1 0x20 ADD PUSH0 KECCAK256 PUSH0 DUP3 DUP3 SLOAD PUSH2 0x777 SWAP2 SWAP1 PUSH2 0xC45 JUMP JUMPDEST SWAP3 POP POP DUP2 SWAP1 SSTORE POP DUP2 PUSH0 DUP1 DUP6 PUSH20 0xFFFFFFFFFFFFFFFFFFFFFFFFFFFFFFFFFFFFFFFF AND PUSH20 0xFFFFFFFFFFFFFFFFFFFFFFFFFFFFFFFFFFFFFFFF AND DUP2 MSTORE PUSH1 0x20 ADD SWAP1 DUP2 MSTORE PUSH1 0x20 ADD PUSH0 KECCAK256 PUSH0 DUP3 DUP3 SLOAD PUSH2 0x7C9 SWAP2 SWAP1 PUSH2 0xC78 JUMP JUMPDEST SWAP3 POP POP DUP2 SWAP1 SSTORE POP DUP3 PUSH20 0xFFFFFFFFFFFFFFFFFFFFFFFFFFFFFFFFFFFFFFFF AND CALLER PUSH20 0xFFFFFFFFFFFFFFFFFFFFFFFFFFFFFFFFFFFFFFFF AND PUSH32 0xDDF252AD1BE2C89B69C2B068FC378DAA952BA7F163C4A11628F55A4DF523B3EF DUP5 PUSH1 0x40 MLOAD PUSH2 0x82D SWAP2 SWAP1 PUSH2 0xA84 JUMP JUMPDEST PUSH1 0x40 MLOAD DUP1 SWAP2 SUB SWAP1 LOG3 PUSH1 0x1 SWAP1 POP SWAP3 SWAP2 POP POP JUMP JUMPDEST PUSH1 0x12 PUSH1 0xFF AND PUSH1 0xA PUSH2 0x850 SWAP2 SWAP1 PUSH2 0xE42 JUMP JUMPDEST PUSH3 0xF4240 PUSH2 0x85E SWAP2 SWAP1 PUSH2 0xE8C JUMP JUMPDEST DUP2 JUMP JUMPDEST PUSH0 PUSH1 0x1 PUSH0 DUP5 PUSH20 0xFFFFFFFFFFFFFFFFFFFFFFFFFFFFFFFFFFFFFFFF AND PUSH20 0xFFFFFFFFFFFFFFFFFFFFFFFFFFFFFFFFFFFFFFFF AND DUP2 MSTORE PUSH1 0x20 ADD SWAP1 DUP2 MSTORE PUSH1 0x20 ADD PUSH0 KECCAK256 PUSH0 DUP4 PUSH20 0xFFFFFFFFFFFFFFFFFFFFFFFFFFFFFFFFFFFFFFFF AND PUSH20 0xFFFFFFFFFFFFFFFFFFFFFFFFFFFFFFFFFFFFFFFF AND DUP2 MSTORE PUSH1 0x20 ADD SWAP1 DUP2 MSTORE PUSH1 0x20 ADD PUSH0 KECCAK256 SLOAD SWAP1 POP SWAP3 SWAP2 POP POP JUMP JUMPDEST PUSH0 DUP2 MLOAD SWAP1 POP SWAP2 SWAP1 POP JUMP JUMPDEST PUSH0 DUP3 DUP3 MSTORE PUSH1 0x20 DUP3 ADD SWAP1 POP SWAP3 SWAP2 POP POP JUMP JUMPDEST DUP3 DUP2 DUP4 MCOPY PUSH0 DUP4 DUP4 ADD MSTORE POP POP POP JUMP JUMPDEST PUSH0 PUSH1 0x1F NOT PUSH1 0x1F DUP4 ADD AND SWAP1 POP SWAP2 SWAP1 POP JUMP JUMPDEST PUSH0 PUSH2 0x925 DUP3 PUSH2 0x8E3 JUMP JUMPDEST PUSH2 0x92F DUP2 DUP6 PUSH2 0x8ED JUMP JUMPDEST SWAP4 POP PUSH2 0x93F DUP2 DUP6 PUSH1 0x20 DUP7 ADD PUSH2 0x8FD JUMP JUMPDEST PUSH2 0x948 DUP2 PUSH2 0x90B JUMP JUMPDEST DUP5 ADD SWAP2 POP POP SWAP3 SWAP2 POP POP JUMP JUMPDEST PUSH0 PUSH1 0x20 DUP3 ADD SWAP1 POP DUP2 DUP2 SUB PUSH0 DUP4 ADD MSTORE PUSH2 0x96B DUP2 DUP5 PUSH2 0x91B JUMP JUMPDEST SWAP1 POP SWAP3 SWAP2 POP POP JUMP JUMPDEST PUSH0 DUP1 REVERT JUMPDEST PUSH0 PUSH20 0xFFFFFFFFFFFFFFFFFFFFFFFFFFFFFFFFFFFFFFFF DUP3 AND SWAP1 POP SWAP2 SWAP1 POP JUMP JUMPDEST PUSH0 PUSH2 0x9A0 DUP3 PUSH2 0x977 JUMP JUMPDEST SWAP1 POP SWAP2 SWAP1 POP JUMP JUMPDEST PUSH2 0x9B0 DUP2 PUSH2 0x996 JUMP JUMPDEST DUP2 EQ PUSH2 0x9BA JUMPI PUSH0 DUP1 REVERT JUMPDEST POP JUMP JUMPDEST PUSH0 DUP2 CALLDATALOAD SWAP1 POP PUSH2 0x9CB DUP2 PUSH2 0x9A7 JUMP JUMPDEST SWAP3 SWAP2 POP POP JUMP JUMPDEST PUSH0 DUP2 SWAP1 POP SWAP2 SWAP1 POP JUMP JUMPDEST PUSH2 0x9E3 DUP2 PUSH2 0x9D1 JUMP JUMPDEST DUP2 EQ PUSH2 0x9ED JUMPI PUSH0 DUP1 REVERT JUMPDEST POP JUMP JUMPDEST PUSH0 DUP2 CALLDATALOAD SWAP1 POP PUSH2 0x9FE DUP2 PUSH2 0x9DA JUMP JUMPDEST SWAP3 SWAP2 POP POP JUMP JUMPDEST PUSH0 DUP1 PUSH1 0x40 DUP4 DUP6 SUB SLT ISZERO PUSH2 0xA1A JUMPI PUSH2 0xA19 PUSH2 0x973 JUMP JUMPDEST JUMPDEST PUSH0 PUSH2 0xA27 DUP6 DUP3 DUP7 ADD PUSH2 0x9BD JUMP JUMPDEST SWAP3 POP POP PUSH1 0x20 PUSH2 0xA38 DUP6 DUP3 DUP7 ADD PUSH2 0x9F0 JUMP JUMPDEST SWAP2 POP POP SWAP3 POP SWAP3 SWAP1 POP JUMP JUMPDEST PUSH0 DUP2 ISZERO ISZERO SWAP1 POP SWAP2 SWAP1 POP JUMP JUMPDEST PUSH2 0xA56 DUP2 PUSH2 0xA42 JUMP JUMPDEST DUP3 MSTORE POP POP JUMP JUMPDEST PUSH0 PUSH1 0x20 DUP3 ADD SWAP1 POP PUSH2 0xA6F PUSH0 DUP4 ADD DUP5 PUSH2 0xA4D JUMP JUMPDEST SWAP3 SWAP2 POP POP JUMP JUMPDEST PUSH2 0xA7E DUP2 PUSH2 0x9D1 JUMP JUMPDEST DUP3 MSTORE POP POP JUMP JUMPDEST PUSH0 PUSH1 0x20 DUP3 ADD SWAP1 POP PUSH2 0xA97 PUSH0 DUP4 ADD DUP5 PUSH2 0xA75 JUMP JUMPDEST SWAP3 SWAP2 POP POP JUMP JUMPDEST PUSH0 DUP1 PUSH0 PUSH1 0x60 DUP5 DUP7 SUB SLT ISZERO PUSH2 0xAB4 JUMPI PUSH2 0xAB3 PUSH2 0x973 JUMP JUMPDEST JUMPDEST PUSH0 PUSH2 0xAC1 DUP7 DUP3 DUP8 ADD PUSH2 0x9BD JUMP JUMPDEST SWAP4 POP POP PUSH1 0x20 PUSH2 0xAD2 DUP7 DUP3 DUP8 ADD PUSH2 0x9BD JUMP JUMPDEST SWAP3 POP POP PUSH1 0x40 PUSH2 0xAE3 DUP7 DUP3 DUP8 ADD PUSH2 0x9F0 JUMP JUMPDEST SWAP2 POP POP SWAP3 POP SWAP3 POP SWAP3 JUMP JUMPDEST PUSH0 PUSH1 0xFF DUP3 AND SWAP1 POP SWAP2 SWAP1 POP JUMP JUMPDEST PUSH2 0xB02 DUP2 PUSH2 0xAED JUMP JUMPDEST DUP3 MSTORE POP POP JUMP JUMPDEST PUSH0 PUSH1 0x20 DUP3 ADD SWAP1 POP PUSH2 0xB1B PUSH0 DUP4 ADD DUP5 PUSH2 0xAF9 JUMP JUMPDEST SWAP3 SWAP2 POP POP JUMP JUMPDEST PUSH0 PUSH1 0x20 DUP3 DUP5 SUB SLT ISZERO PUSH2 0xB36 JUMPI PUSH2 0xB35 PUSH2 0x973 JUMP JUMPDEST JUMPDEST PUSH0 PUSH2 0xB43 DUP5 DUP3 DUP6 ADD PUSH2 0x9BD JUMP JUMPDEST SWAP2 POP POP SWAP3 SWAP2 POP POP JUMP JUMPDEST PUSH0 DUP1 PUSH1 0x40 DUP4 DUP6 SUB SLT ISZERO PUSH2 0xB62 JUMPI PUSH2 0xB61 PUSH2 0x973 JUMP JUMPDEST JUMPDEST PUSH0 PUSH2 0xB6F DUP6 DUP3 DUP7 ADD PUSH2 0x9BD JUMP JUMPDEST SWAP3 POP POP PUSH1 0x20 PUSH2 0xB80 DUP6 DUP3 DUP7 ADD PUSH2 0x9BD JUMP JUMPDEST SWAP2 POP POP SWAP3 POP SWAP3 SWAP1 POP JUMP JUMPDEST PUSH32 0x53616C646F20696E737566696369656E7465206F75206E616F206175746F7269 PUSH0 DUP3 ADD MSTORE PUSH32 0x7A61646F00000000000000000000000000000000000000000000000000000000 PUSH1 0x20 DUP3 ADD MSTORE POP JUMP JUMPDEST PUSH0 PUSH2 0xBE4 PUSH1 0x24 DUP4 PUSH2 0x8ED JUMP JUMPDEST SWAP2 POP PUSH2 0xBEF DUP3 PUSH2 0xB8A JUMP JUMPDEST PUSH1 0x40 DUP3 ADD SWAP1 POP SWAP2 SWAP1 POP JUMP JUMPDEST PUSH0 PUSH1 0x20 DUP3 ADD SWAP1 POP DUP2 DUP2 SUB PUSH0 DUP4 ADD MSTORE PUSH2 0xC11 DUP2 PUSH2 0xBD8 JUMP JUMPDEST SWAP1 POP SWAP2 SWAP1 POP JUMP JUMPDEST PUSH32 0x4E487B7100000000000000000000000000000000000000000000000000000000 PUSH0 MSTORE PUSH1 0x11 PUSH1 0x4 MSTORE PUSH1 0x24 PUSH0 REVERT JUMPDEST PUSH0 PUSH2 0xC4F DUP3 PUSH2 0x9D1 JUMP JUMPDEST SWAP2 POP PUSH2 0xC5A DUP4 PUSH2 0x9D1 JUMP JUMPDEST SWAP3 POP DUP3 DUP3 SUB SWAP1 POP DUP2 DUP2 GT ISZERO PUSH2 0xC72 JUMPI PUSH2 0xC71 PUSH2 0xC18 JUMP JUMPDEST JUMPDEST SWAP3 SWAP2 POP POP JUMP JUMPDEST PUSH0 PUSH2 0xC82 DUP3 PUSH2 0x9D1 JUMP JUMPDEST SWAP2 POP PUSH2 0xC8D DUP4 PUSH2 0x9D1 JUMP JUMPDEST SWAP3 POP DUP3 DUP3 ADD SWAP1 POP DUP1 DUP3 GT ISZERO PUSH2 0xCA5 JUMPI PUSH2 0xCA4 PUSH2 0xC18 JUMP JUMPDEST JUMPDEST SWAP3 SWAP2 POP POP JUMP JUMPDEST PUSH32 0x53616C646F20696E737566696369656E74650000000000000000000000000000 PUSH0 DUP3 ADD MSTORE POP JUMP JUMPDEST PUSH0 PUSH2 0xCDF PUSH1 0x12 DUP4 PUSH2 0x8ED JUMP JUMPDEST SWAP2 POP PUSH2 0xCEA DUP3 PUSH2 0xCAB JUMP JUMPDEST PUSH1 0x20 DUP3 ADD SWAP1 POP SWAP2 SWAP1 POP JUMP JUMPDEST PUSH0 PUSH1 0x20 DUP3 ADD SWAP1 POP DUP2 DUP2 SUB PUSH0 DUP4 ADD MSTORE PUSH2 0xD0C DUP2 PUSH2 0xCD3 JUMP JUMPDEST SWAP1 POP SWAP2 SWAP1 POP JUMP JUMPDEST PUSH0 DUP2 PUSH1 0x1 SHR SWAP1 POP SWAP2 SWAP1 POP JUMP JUMPDEST PUSH0 DUP1 DUP3 SWAP2 POP DUP4 SWAP1 POP JUMPDEST PUSH1 0x1 DUP6 GT ISZERO PUSH2 0xD68 JUMPI DUP1 DUP7 DIV DUP2 GT ISZERO PUSH2 0xD44 JUMPI PUSH2 0xD43 PUSH2 0xC18 JUMP JUMPDEST JUMPDEST PUSH1 0x1 DUP6 AND ISZERO PUSH2 0xD53 JUMPI DUP1 DUP3 MUL SWAP2 POP JUMPDEST DUP1 DUP2 MUL SWAP1 POP PUSH2 0xD61 DUP6 PUSH2 0xD13 JUMP JUMPDEST SWAP5 POP PUSH2 0xD28 JUMP JUMPDEST SWAP5 POP SWAP5 SWAP3 POP POP POP JUMP JUMPDEST PUSH0 DUP3 PUSH2 0xD80 JUMPI PUSH1 0x1 SWAP1 POP PUSH2 0xE3B JUMP JUMPDEST DUP2 PUSH2 0xD8D JUMPI PUSH0 SWAP1 POP PUSH2 0xE3B JUMP JUMPDEST DUP2 PUSH1 0x1 DUP2 EQ PUSH2 0xDA3 JUMPI PUSH1 0x2 DUP2 EQ PUSH2 0xDAD JUMPI PUSH2 0xDDC JUMP JUMPDEST PUSH1 0x1 SWAP2 POP POP PUSH2 0xE3B JUMP JUMPDEST PUSH1 0xFF DUP5 GT ISZERO PUSH2 0xDBF JUMPI PUSH2 0xDBE PUSH2 0xC18 JUMP JUMPDEST JUMPDEST DUP4 PUSH1 0x2 EXP SWAP2 POP DUP5 DUP3 GT ISZERO PUSH2 0xDD6 JUMPI PUSH2 0xDD5 PUSH2 0xC18 JUMP JUMPDEST JUMPDEST POP PUSH2 0xE3B JUMP JUMPDEST POP PUSH1 0x20 DUP4 LT PUSH2 0x133 DUP4 LT AND PUSH1 0x4E DUP5 LT PUSH1 0xB DUP5 LT AND OR ISZERO PUSH2 0xE11 JUMPI DUP3 DUP3 EXP SWAP1 POP DUP4 DUP2 GT ISZERO PUSH2 0xE0C JUMPI PUSH2 0xE0B PUSH2 0xC18 JUMP JUMPDEST JUMPDEST PUSH2 0xE3B JUMP JUMPDEST PUSH2 0xE1E DUP5 DUP5 DUP5 PUSH1 0x1 PUSH2 0xD1F JUMP JUMPDEST SWAP3 POP SWAP1 POP DUP2 DUP5 DIV DUP2 GT ISZERO PUSH2 0xE35 JUMPI PUSH2 0xE34 PUSH2 0xC18 JUMP JUMPDEST JUMPDEST DUP2 DUP2 MUL SWAP1 POP JUMPDEST SWAP4 SWAP3 POP POP POP JUMP JUMPDEST PUSH0 PUSH2 0xE4C DUP3 PUSH2 0x9D1 JUMP JUMPDEST SWAP2 POP PUSH2 0xE57 DUP4 PUSH2 0x9D1 JUMP JUMPDEST SWAP3 POP PUSH2 0xE84 PUSH32 0xFFFFFFFFFFFFFFFFFFFFFFFFFFFFFFFFFFFFFFFFFFFFFFFFFFFFFFFFFFFFFFFF DUP5 DUP5 PUSH2 0xD71 JUMP JUMPDEST SWAP1 POP SWAP3 SWAP2 POP POP JUMP JUMPDEST PUSH0 PUSH2 0xE96 DUP3 PUSH2 0x9D1 JUMP JUMPDEST SWAP2 POP PUSH2 0xEA1 DUP4 PUSH2 0x9D1 JUMP JUMPDEST SWAP3 POP DUP3 DUP3 MUL PUSH2 0xEAF DUP2 PUSH2 0x9D1 JUMP JUMPDEST SWAP2 POP DUP3 DUP3 DIV DUP5 EQ DUP4 ISZERO OR PUSH2 0xEC6 JUMPI PUSH2 0xEC5 PUSH2 0xC18 JUMP JUMPDEST JUMPDEST POP SWAP3 SWAP2 POP POP JUMP INVALID LOG2 PUSH5 0x6970667358 0x22 SLT KECCAK256 0xDE 0xE5 SAR PUSH1 0x78 DUP10 DUP16 0xB2 0xC3 0xBE PUSH26 0x7BE7DAE569599A67DC92BD57F90DBF8380134734C564736F6C63 NUMBER STOP ADDMOD BYTE STOP CALLER "
				},
				"gasEstimates": {
					"creation": {
						"codeDepositCost": "768600",
						"executionCost": "infinite",
						"totalCost": "infinite"
					},
					"external": {
						"_initialSupply()": "infinite",
						"allowance(address,address)": "infinite",
						"approve(address,uint256)": "infinite",
						"balanceOf(address)": "2829",
						"decimals()": "420",
						"name()": "infinite",
						"symbol()": "infinite",
						"totalSupply()": "2477",
						"transfer(address,uint256)": "infinite",
						"transferFrom(address,address,uint256)": "infinite"
					}
				},
				"methodIdentifiers": {
					"_initialSupply()": "c3b2d337",
					"allowance(address,address)": "dd62ed3e",
					"approve(address,uint256)": "095ea7b3",
					"balanceOf(address)": "70a08231",
					"decimals()": "313ce567",
					"name()": "06fdde03",
					"symbol()": "95d89b41",
					"totalSupply()": "18160ddd",
					"transfer(address,uint256)": "a9059cbb",
					"transferFrom(address,address,uint256)": "23b872dd"
				}
			},
			"storageLayout": {
				"storage": [
					{
						"astId": 94,
						"contract": "contracts/PIP_Token/PIP_Token.sol:PIP_Tokens",
						"label": "_balances",
						"offset": 0,
						"slot": "0",
						"type": "t_mapping(t_address,t_uint256)"
					},
					{
						"astId": 100,
						"contract": "contracts/PIP_Token/PIP_Token.sol:PIP_Tokens",
						"label": "_allowed",
						"offset": 0,
						"slot": "1",
						"type": "t_mapping(t_address,t_mapping(t_address,t_uint256))"
					},
					{
						"astId": 102,
						"contract": "contracts/PIP_Token/PIP_Token.sol:PIP_Tokens",
						"label": "_totalSupply",
						"offset": 0,
						"slot": "2",
						"type": "t_uint256"
					}
				],
				"types": {
					"t_address": {
						"encoding": "inplace",
						"label": "address",
						"numberOfBytes": "20"
					},
					"t_mapping(t_address,t_mapping(t_address,t_uint256))": {
						"encoding": "mapping",
						"key": "t_address",
						"label": "mapping(address => mapping(address => uint256))",
						"numberOfBytes": "32",
						"value": "t_mapping(t_address,t_uint256)"
					},
					"t_mapping(t_address,t_uint256)": {
						"encoding": "mapping",
						"key": "t_address",
						"label": "mapping(address => uint256)",
						"numberOfBytes": "32",
						"value": "t_uint256"
					},
					"t_uint256": {
						"encoding": "inplace",
						"label": "uint256",
						"numberOfBytes": "32"
					}
				}
			},
			"userdoc": {
				"kind": "user",
				"methods": {},
				"version": 1
			}
		}
	}
}